:100000000C949E030C94D6030C94D6030C94D60344
:100010000C94D6030C94D6030C94D6030C94D603FC
:100020000C94D6030C94D6030C9432290C94062A13
:100030000C9455240C94D6030C94D6030C94D6033C
:100040000C94D6030C94D6030C94D6030C94D603CC
:100050000C94D6030C94CD240C94D6030C94D603A4
:100060000C94D6030C94D6030C94D6030C94D603AC
:100070000C94D6030C94D6030C94D6030C94D6039C
:100080000C94D6030C94D6030C94D6030C94D6038C
:100090000C94D6030C94D6030C94D6030C94D6037C
:1000A0000C94D6030C94D6030C94D60329003A0082
:1000B0003B003C003D003E003F004000410042004C
:1000C000430044004500460021524C0035001E000C
:1000D0001F0020002100220023002400250026000C
:1000E00027002D002E002A002A004A002B000000C5
:1000F00014001A000800150017001C0018000C005E
:10010000120013002F00300031004B0039000000B6
:1001100004001600070009000A000B000D000E0085
:100120000F0033003400280000004E00E100E10021
:100130001D001B000600190005001100100036000C
:10014000370038000000E50052004D00E000E300F9
:100150000000E2002C0000002C0000002C00000039
:10016000E6002052E400500051004F000100010061
:100170000100010001000100010001000100010077
:1001800001000100010001000100AE0001000100BA
:100190000100010001000100010001000100010057
:1001A0000100010001000100010001000100000048
:1001B000207821782378247825782678277828785D
:1001C0000100010001000100010001000100000028
:1001D0000100010001000100010001000100010017
:1001E0000100010001000100000001000100010008
:1001F000010001000378027804780578010001000D
:100200000100010000000100A9000100010001003F
:1002100000000100010000000100000001000000DA
:10022000010001000100AC00AA00AB0001000100C8
:1002300001000100010001000100010001000100B6
:1002400001000100010001000100010001000100A6
:100250000100010001000100010001000100010096
:100260000100010001000100010001000100000087
:100270000100010001000100010001000100010076
:100280000100010001000100010001000100000067
:100290000100010001000100010001000100010056
:1002A0000100010001000100000001000100010047
:1002B0000100010001000100010001000100010036
:1002C0000100010000000100010001000100010027
:1002D000000001000100000001000000010000001A
:1002E0000100010001000100010001000000000008
:1002F00000000000000000000000000000000000FE
:1003000000000000000000000000000000000000ED
:1003100000000000000000000000000000000000DD
:1003200000000000000000000000000000000000CD
:1003300000000000000000000000000000000000BD
:1003400000000000000000000000000000000000AD
:10035000000000000000000000000000000000009D
:10036000000000000000000000000000000000008D
:10037000000000000000000000000000000000007D
:10038000000000000000000000000000000000006D
:10039000000000000000000000000000000000005D
:1003A0000000010000000000000000001E0F05001A
:1003B000047F3F1F643214643214783C1E1E140AFA
:1003C000052223252628292A2C2D2F303233353695
:1003D000383A3B3D3E4042434547494A4C4E5051D6
:1003E000535557595A5C5E6062646668696B6D6FFD
:1003F00071737577797B7D7F81838587898A8C8E00
:1004000090929496989A9C9E9FA1A3A5A7A8AAAC07
:10041000AEAFB1B3B4B6B8B9BBBCBEBFC1C2C3C541
:10042000C6C7C9CACBCCCDCED0D1D2D2D3D4D5D6E3
:10043000D7D7D8D9D9DADADBDBDBDCDCDCDCDCDD16
:10044000DDDDDDDCDCDCDCDCDBDBDBDADAD9D9D8FA
:10045000D7D7D6D5D4D3D2D2D1D0CECDCCCBCAC992
:10046000C7C6C5C3C2C1BFBEBCBBB9B8B6B4B3B1C1
:10047000AFAEACAAA8A7A5A3A19F9E9C9A9896945C
:1004800092908E8C8A89878583817F7D7B79777531
:1004900073716F6D6B6968666462605E5C5A595710
:1004A000555351504E4C4A4947454342403E3D3BCF
:1004B0003A3836353332302F2D2C2A292826252359
:1004C00022FFAA7F55400001010101010101010144
:1004D00002020202020202020203030303030303F5
:1004E00003040404040404040505050505060606C2
:1004F0000606070707070708080808090909090A7F
:100500000A0A0B0B0B0C0C0C0D0D0D0E0E0E0F0F23
:100510000F101011111112121313141415151616B1
:100520001717181819191A1A1B1B1C1D1D1E1E1F20
:100530002020212222232424252626272829292A6F
:100540002B2C2D2D2E2F3031323233343536373897
:10055000393A3B3C3D3E3F40414243444546474893
:10056000494A4C4D4E4F50515354555658595A5B69
:100570005D5E5F616264656668696B6C6D6F707209
:10058000737577787A7B7D7E8082838587888A8C75
:100590008E8F91939596989A9C9EA0A2A3A5A7A9A9
:1005A000ABADAFB1B3B5B7BABCBEC0C2C4C6C9CBA0
:1005B000CDCFD1D4D6D8DBDDDFE2E4E7E9EBEEF056
:1005C000F3F5F8FAFDFF16034B0042004400370034
:1005D0003500200072006500760032000000100334
:1005E0004B0042004400660061006E007300000092
:1005F0000403090409023B00020100A0FA090400F7
:10060000000103010100092111010001224400073A
:10061000058103080001090401000103000000092D
:10062000211101000122B6000705820320000112FA
:1006300001000200000008424B616002000102005C
:100640000105010902A10185020901A1000509199D
:100650000129081500250195087501810205010988
:100660003009311581257F950275088106093815F5
:1006700081257F950175088106050C0A38021581D0
:10068000257F950175088106C0C005010980A1017B
:10069000850319012AB700150126B70095017510C9
:1006A0008100C0050C0901A101850419012AA002DD
:1006B000150126A002950175108100C005010906EB
:1006C000A1018506050719E029E715002501950810
:1006D000750181020507190029EF1500250195F024
:1006E0007501810205081901290595057501910219
:1006F000950175039101C005010906A101050719BE
:10070000E029E7150025019508750181029501751D
:100710000881010507190029FF150026FF0095062D
:1007200075088100050819012905150025019505A1
:1007300075019102950175039101C00011241FBE3E
:10074000CFEFDAE0DEBFCDBF04B603FE18C0809164
:10075000B9039091BA03A091BB03B091BC03873059
:10076000904BA740B04B59F41092B9031092BA03C2
:100770001092BB031092BC03E0E0F8E3099511E08E
:10078000A0E0B1E0E2EFFBE502C005900D92AC3EC7
:10079000B107D9F723E0ACEEB1E001C01D92A93B4F
:1007A000B207E1F70E940B140C94AD2D0C940000DD
:1007B0008430C8F46630B8F44031A8F4E62FF0E095
:1007C00096E0899FE00DF11D112484E0EE0FFF1FDC
:1007D0008A95E1F7E40FF11DEE0FFF1FE455FF4F7F
:1007E00085919491089581E090E008950E94D80346
:1007F000089581E008950E94F90308950E94F90385
:10080000089581E008950E94F90308950E94F90374
:1008100008950E9406040895089508950E940C0406
:10082000089508950895A6E0B0E0E9E1F4E00C949D
:10083000592C49835A839E833091F30189819A818F
:1008400031111AC03E81332399F0222389F00E948E
:10085000780A182F682F89819A810E94550A698128
:100860007A81812F0E94A4112696E3E00C94752CC6
:100870000E94660A182FF3CF0E94780A69817A8154
:10088000F1CFFC01262F40815181628173818481E7
:1008900095810E9413040895CF93DF93EC0161E0EA
:1008A0000E944104BE010E94FB03882359F061E0CD
:1008B000CE010E944104BE010E94FE038170DF91BF
:1008C000CF91089580E0FACF0F931F93CF93DF93DA
:1008D000EC0160E00E9441048C01BE010E940D0405
:1008E000BE01C8010E940E04DF91CF911F910F91AC
:1008F000089521E030E0A90102C0440F551F8A95F8
:10090000E2F7CA010E9477090895CF93C82F81E0CA
:1009100090E00C2E02C0880F991F0A94E2F70E9403
:10092000E40E8C2F0E947904CF91089581E0089500
:100930000E94960408950E9496040895CF93C82FAC
:100940000E942A098C2F0E9498048C2F0E949B04DD
:100950002FEF84E39CE0215080409040E1F700C0FD
:100960000000CF91089581E00E949E040E94F1242E
:10097000089580E00E949E040E94152508950F931B
:100980001F93CF93DF938C0161E00E944104EC013F
:10099000F801858181110E94B01BB801CE010E942F
:1009A0000304811106C080E0DF91CF911F910F9168
:1009B0000895B801CE010E9409048823A1F3B8016B
:1009C000CE010E94961C882371F3B801CE010E94CB
:1009D000C621882341F3B801CE010E94021E88235C
:1009E00011F3B801CE010E94D81D8823E1F2B801AD
:1009F000CE010E9425148823B1F2B801CE010E94D5
:100A0000A812882381F2F8018581882361F0C33020
:100A1000FCE7DF07E9F058F4C115ECE7DE07A9F0C1
:100A2000C130DC47B9F0C8010E940104BDCFCB350D
:100A30008CE7D807A9F0CC35ECE7DE0771F0CA35B2
:100A4000DC4789F70E94BF0EEECF0E94B304ABCF04
:100A50000E94C70E0E94B904A6CF0E94B50EE3CF34
:100A60000E94C30EE0CF0E9411040E94272480E060
:100A70000E94751C0E9467050E94131A08950E9427
:100A8000C51B0E946B050E94071B0E9412040E9456
:100A90002C24089581E0089581FD02C02A9A0895CA
:100AA0002A980895CF93DF93D82F0E944A05C82F24
:100AB000882319F08D2F0E944C058C2FDF91CF9148
:100AC0000895229A2A9A08950E945205089580E076
:100AD0000E94640508950E940F220E9464050895F3
:100AE000CF930E940F22C82F8091EE018C1779F0CE
:100AF000C093EE010E94C1246093EF017093F00156
:100B00008093F1019093F2018C2F0E946405CF91A4
:100B10000895ADE0B0E0EFE8F5E00C945A2C48877A
:100B200059876A877B878C879D8791110E94C50DA5
:100B30001F8286E0FE013896DE01119601900D922B
:100B40008A95E1F78D8181110DC029813A814B8110
:100B50005C816D817E818F810E940F0D2D96E2E078
:100B60000C94762CCE0101960E944C048111EDCF9D
:100B7000F5CFFC012481213021F4808191810E94F4
:100B8000AA0A0895662329F00E94631F0E94362056
:100B900008950E94BD1FFACFCF93C82F8823C9F0B4
:100BA0008238C9F40E941C2281FD13C089E30E948F
:100BB0003E230E94590E2FEF87EE93E02150804094
:100BC0009040E1F700C0000089E30E9458230E9492
:100BD000590ECF9108958338A1F40E941C2280FD04
:100BE000F8CF83E50E943E230E94590E2FEF81EE3D
:100BF00094E0215080409040E1F700C0000083E580
:100C0000E4CF8438A1F40E941C2282FDE2CF87E465
:100C10000E943E230E94590E2FEF81EE94E0215056
:100C200080409040E1F700C0000087E4CECF8CEF19
:100C30008C0F813A70F48C2F0E94B222882329F005
:100C40008C2F0E9458230E94590E8C2F0E943E2305
:100C5000BECF80E28C0F883048F4C77081E001C0BD
:100C6000880FCA95EAF70E94A80DB1CFEBE5EC0F0B
:100C7000E33040F4F0E0E959FE4F808190E00E94BB
:100C80004622A7CFE8E5EC0FEB3150F4F0E0EE0F91
:100C9000FF1FEF5CFE4F808191810E946B2299CFF4
:100CA00083E38C0F833108F094CF61E08C2F0E9496
:100CB000C2058FCF882309F456C0823879F40E9488
:100CC0001C2281FF50C089E30E943E230E94590EDE
:100CD00089E30E9458230E94590E0895833859F4DD
:100CE0000E941C2280FF3FC083E50E943E230E9499
:100CF000590E83E5EECF843859F40E941C2282FFFE
:100D000032C087E40E943E230E94590E87E4E1CF5F
:100D10009CEF980F913AE8F290E2980F983050F4D7
:100D2000877091E001C0990F8A95EAF7892F0E9498
:100D3000AE0DD1CF9BE5980F933028F490E080E082
:100D40000E944622089598E5980F9B3128F490E080
:100D500080E00E946B22089593E3980F933118F47A
:100D600060E00E94C20508951F93CF93DF93182F70
:100D7000EB010E94CC05209739F4812F0E945A067E
:100D8000DF91CF911F9108958FE99FE00197F1F7CF
:100D900000C000002197EFCF70E060E0893311F4CC
:100DA00060E570E00E94B4060895882321F00E9457
:100DB000A80D0E94590E0895882321F00E94AE0DBF
:100DC0000E94590E0895B0E0A0E0E9EEF6E00C9420
:100DD000532C6C01D62FC72FFC011581068102957B
:100DE0000F700E949E0DE82E8823F9F0E12E11234A
:100DF000E1F08C2F807F803461F080E28D0F8830AD
:100E000008F18C2F807E803221F4D230D8F000237C
:100E1000C9F08091560382FF15C082E00E94890EBE
:100E20000E949E0D91E0E82EE926BC2EB2949FE030
:100E3000B922FBE0FB15B8F1EB2DF0E0E155F24DE6
:100E40000C94132CE12CF1CF0C2F0F70C07F11F0FC
:100E50000295007F112399F0002359F080E28D0F55
:100E6000883010F0D11107C0802F0E94A80D0E9479
:100E7000590E8D2F48C0802F0E94B80DF8CF8D2FAE
:100E80000E945A06002379F080E28D0F883010F01E
:100E9000D11104C0802F0E94AE0D03C0802F0E948C
:100EA000BE0D0E94590EEB2DE850FF0B349708F051
:100EB0006BC10E940F220E946405CDB7DEB7E9E046
:100EC0000C946F2C2C2F2F70F22EC07FC03219F093
:100ED000F29480EFF822DD2341F0D130C9F11123E3
:100EE00009F443C00023E9F0C4CF8091560382FD8A
:100EF00014C0112359F0FF2029F08F2D0E94A80D56
:100F00000E94590E80E00E94CC05CDCF80E00E9467
:100F10005A06FF2041F28F2DBECF112369F0011137
:100F200004C08F2D0E94D506BECF013009F0BBCF83
:100F30008F2D0E94DC0DB7CF0111B5CF8F2D0E94F0
:100F4000DC068F2D0E94E80D8F2D0E94CC0DABCFBB
:100F5000112321F0063008F0A6CFE3CF053008F0CA
:100F6000A2CF8F2D0E94DC069ECF0023D1F3D93370
:100F700049F43FEF87EE93E0315080409040E1F735
:100F800000C000008D2F0E945A068DCF8C2F8695B1
:100F90008695837069F0813009F085CF8D2F9C2F65
:100FA0009370111102C080E090E00E946B227BCF11
:100FB0008D2F9C2F9370111102C080E090E00E9451
:100FC000462271CF612F8D2F0E94C2056CCF8C2FCE
:100FD0008370A1F5111167CF4D2F4295469547704B
:100FE000440F440F2D2F2F7030E0042E02C0220F2B
:100FF000331F0A94E2F790E080E0D4FF09C08FE04D
:1010000090E002C0880F991F4A95E2F7809590956D
:10101000C695C695C370822B932BC23049F058F405
:10102000C13019F00E9483093ECF0E947A093BCF5C
:101030000E948C0938CF0E94770935CF86951123FD
:1010400011F08C2F8170882309F42DCF4D2F4295FC
:1010500046954770440F440F2D2F2F7030E0042E1B
:1010600002C0220F331F0A94E2F790E080E0D4FF21
:1010700009C08FE090E002C0880F991F4A95E2F7FF
:1010800080959095C695C695C370822B932BC230E0
:1010900049F058F4C13019F00E94EE0904CF0E94C3
:1010A000E50901CF0E94F709FECE0E949B09FBCE05
:1010B000CF70112329F08C2F0E94B3098D2F32CFCE
:1010C0008D2F0E94DC068C2F0E94C309ECCED23FEC
:1010D00041F160F4D03FB9F0D13F81F0112309F420
:1010E00043C00111C6CE8C2F8F711FC0D33F01F1B9
:1010F000D43FA1F78091560382FD24C08C2F8F71BD
:10110000112311F312C0112341F0053008F0CBCEAA
:101110008C2F8F710E94D509C6CE063008F0C3CE41
:10112000F7CF8C2F8F711111CFCF0E94B309BBCE97
:10113000112329F08C2F8F710E94A709B4CE0E9431
:10114000A209B1CE112331F063E08C2F8F710E9480
:101150006B0EA9CE81E00E94890E023008F4A3CE66
:1011600082E00E94890E9FCE002359F0D93309F006
:1011700009CFEFEFF7EE23E0E150F0402040E1F738
:10118000FFCE8C2F8F71A0CFEE2009F496CE0E9457
:101190009A0D80FD92CEF60115820E94940D0E9458
:1011A000B309C6010E94F1080E94940D0E94C30970
:1011B00084CE0F931F93CF93DF93EC0168817981E5
:1011C0008D810E94B50A8C010E94000A0E94760956
:1011D000B801CE010E94E306DF91CF911F910F91DC
:1011E0000895CF93DF93EC018C81882399F0CE0191
:1011F0000E94BF04811111C00E949E0D882351F0EE
:101200008D81882339F08091560382FF03C082E0EC
:101210000E94890EDF91CF910895CE010E94D908D6
:10122000CE010E946404F6CF90E080E00E94462246
:1012300090E080E00E946B220E94C50D0E94590E32
:101240000E9452200E94362008950E9472230E941C
:10125000140908950E94B50D0E94250908959295DC
:101260009F70963091F058F4925F9F70923058F4CE
:10127000803F19F030F4883E30F481E008959A5FA1
:10128000F4CF843FD1F380E00895883EB0F3813FEE
:10129000D1F7F3CFFC012481222339F080819181A1
:1012A0000E94AA0A0E942F09089580E00895A6E0EE
:1012B000B0E0EDE5F9E00C945A2C2696E2E00C94AF
:1012C000762CA7E0B0E0E7E6F9E00C945A2C2796DC
:1012D000E2E00C94762C08950E946B0908950E9418
:1012E0006C099093270280932602089508950E9426
:1012F0006F0908952091260230912702822B932BAB
:101300000E946F09089520912602309127028223BE
:1013100093230E946F09089520912602309127029D
:10132000822793270E946F0908950E946B090895F0
:101330000E94950908950E94980990932502809330
:101340002402089590E080E00E949B09089521E026
:1013500030E0A90102C0440F551F8A95E2F7CA0187
:101360000E949B09089521E030E002C0220F331F44
:101370008A95E2F78091240290912502822B932B8B
:101380000E949B09089521E030E002C0220F331F24
:101390008A95E2F72095309580912402909125025C
:1013A000822393230E949B09089521E030E002C02C
:1013B000220F331F8A95E2F7809124029091250233
:1013C000822793270E949B0908952091240230913F
:1013D0002502822B932B0E949B09089520912402C1
:1013E00030912502822393230E949B090895209126
:1013F000240230912502822793270E949B09089599
:101400000895262F277091E001C0990F2A95EAF7D9
:1014100023E0769567952A95E1F7660F771F660FAB
:10142000771FFA01E60FF71F50E040E0682F70E0E9
:101430008191DF0111979B01042E02C036952795FB
:101440000A94E2F7217021952827292328272C9335
:101450004F5F5F4F4430510559F70895A82FA7708B
:1014600023E0969587952A95E1F7880F991F880FB5
:10147000991FFB01E80FF91F50E040E080E0219147
:1014800030E00A2E02C0369527950A94E2F72170C3
:101490003327042E01C0220F0A94EAF7822B4F5FF4
:1014A0005F4F4430510559F70895262F963068F460
:1014B000803158F430E1939FB0011124680F711D01
:1014C00044EF51E0822F0E94010A0895963070F493
:1014D000803160F440E1949F9001112464EF71E049
:1014E000820F932F911D0E942E0A089580E0089587
:1014F000B0E0A0E0EEE7FAE00C94532C7C01009100
:101500002402109125028091260290912702082B37
:10151000192BCFE0D0E0CC24C394D12CBC2EC60133
:101520000C2E02C0880F991F0A94E2F780239123A2
:10153000892B49F4219790F7B12C8B2DCDB7DEB7CD
:10154000E9E00C946F2CB7018C2F0E94B011019729
:1015500089F3F3CFCF93DF93EC010E94780ABE01A9
:101560000E94B011DF91CF9108951F93CF93DF9325
:10157000EB019091F301992339F0CB010E94AA0A63
:10158000DF91CF911F910895882369F0CB010E94CC
:10159000780A182F682FCE010E94550ABE01812FAC
:1015A0000E94B011EDCFCB010E94660A182FF6CF32
:1015B0001F93CF93DF93C091280217E080912902F7
:1015C0008C1304C0DF91CF911F910895D0E01C9F30
:1015D000F0011D9FF00D1124E65DFD4F208131814A
:1015E000428153816481758186810E9461092196BF
:1015F000C770E4CF2091620230916302409164028F
:101600005091650260916602709167028091680254
:101610000E9461090895CF93DF9380916802807FD3
:1016200009F04DC080916702882309F448C0E09119
:10163000280250912902C0916302D0916202609108
:1016400064027091650247E05E17C9F18E2F90E049
:10165000E49FF0011124E65DFD4F2481222391F1E6
:10166000489FF001499FF00D1124DF01A65DBD4F99
:1016700011962C9111972C1325C02C912D1322C05B
:1016800015962C91159721111DC012962D913C9104
:10169000261B370B283C3105A8F4809168028F7017
:1016A000806180936802E05DFD4F80818F70806172
:1016B000808382E692E00E94F1080E94D80ADF91BE
:1016C000CF910895FC013196E770BECF482F20914D
:1016D00028029091290257E0291302C080E0089562
:1016E00030E0529FF001539FF00D1124E65DFD4F55
:1016F0008181681306C08081481303C085818111F0
:10170000EECF2F5F3F4F2770E7CFA4E1B0E0EBE8CB
:10171000FBE00C94502C8C0186E0F801DE011F9652
:1017200001900D928A95E1F7F8018481E58092E6B7
:10173000A92E92E0B92E9091660291111FC08823C4
:10174000D1F0EE20A9F0C8010E944A09F82E8823A2
:1017500079F087E0F801D50101900D928A95E1F7C3
:10176000C5010E94B9050E940B0B0E94FA0A5FC0D6
:10177000C8010E94F108FF24F39459C0C080D180B1
:1017800082809380F090670220916402309165021C
:10179000A401421B530BFF2009F4F9C0483C51053A
:1017A00008F0A7C0882309F442C090916302809199
:1017B0006802282F207F09F05CC09D1116C090910F
:1017C0006202C91212C0E1104EC08F708061809316
:1017D00068020E94FA0A82E692E00E94F108809173
:1017E0006802F8018683F12C22C0E1103CC06D2D07
:1017F0008C2D0E94660B6D2D8C2D0E94660BE82EA1
:101800008111F1CFCF86D88A8F8598890E94AA0A44
:10181000292F22952F70243078F49F702230A8F061
:101820009923B9F0F8019681907F99F4FE2C8F2DC1
:101830006496ECE00C946C2C2A5F2F70223068F0D8
:10184000C8010E94F108EF2CF1CF992311F08823F1
:1018500069F3805E883050F3F3CF803F38F3815FC7
:10186000833070F7E3CF80916802816080936802D3
:10187000BACF9D1113C090916202C9120FC0E1103E
:101880000DC08683C8010E94F10887E0F801A2E636
:10189000B2E001900D928A95E1F767CFC8010E94EE
:1018A0004A09882309F464CFEE2009F461CF8091BE
:1018B0006802803288F02091620230916302398799
:1018C00028879B868A86909166029C871D868E87D4
:1018D000CE0108960E94F10887E0F801A2E6B2E086
:1018E00001900D928A95E1F70E940B0B0E94FA0A73
:1018F00042CF90916802292F207FA1F4682D9A8A07
:10190000898AA6017A899E2D0E94570982E692E073
:101910000E94F10887E0F50111928A95E9F70E948B
:10192000FA0A61CF882309F482CF809163028D1176
:1019300010C080916202C8120CC0E1100AC09683E8
:10194000C8010E94F10887E0F50111928A95E9F734
:101950006ECFC8010E944A09882309F409CFEE20FE
:1019600009F406CF80916802803208F4B5CF209147
:101970006202309163023A8329839C828B82909128
:1019800066029D831E828F83CE010196A3CF483CC1
:101990005105B8F5882309F4EECEFE2CEE2009F4AB
:1019A000E7CE809163028D111EC080916202C81241
:1019B0001AC08091680280FD0DC0982F907F51F071
:1019C0008683903F09F45ECF982F907F905F8F7051
:1019D000892B57CF87E0F801A2E6B2E001900D9283
:1019E0008A95E1F724CFC8010E944A09811174CF7A
:1019F00080916802816080936802C8010E94F108AA
:101A000016CF682D9A8A898AA6017A899E2D0E940E
:101A1000570987E0F50111928A95E9F7A6CEAEE065
:101A2000B0E0E5E1FDE00C94592C288739874A871E
:101A30005B876C877D878E87CE0108960E94850B19
:101A40008823B1F06C85662341F0288539854A8565
:101A50005B857D858E850E94610917E08091280253
:101A60009091290289133DC02E96E3E00C94752CC9
:101A700087E0FE013896DE01119601900D928A955D
:101A8000E1F78C85882349F32091290230E0C901D0
:101A9000019687709927409128024817190699F0F6
:101AA00097E0929FD001939FB00D1124A65DBD4F8A
:101AB000FE01319601900D929A95E1F780932902EB
:101AC0000E94D80ACACF0E942A09109229021092B5
:101AD000280287E0E2E6F2E0DF011D928A95E9F74D
:101AE000BCCF819FC0011124865D9D4F0E94850B54
:101AF000882309F4B9CFE09128021E9FF001112438
:101B0000E65DFD4F20813181428153816481758181
:101B100086810E9461098091280290E00196877079
:101B20009927809328029ACF809191028695869575
:101B30008695089580919102877008959091910201
:101B4000977081E009F480E008958091BD020895C6
:101B50009091BD02892B8093BD020895809590914C
:101B6000BD0298239093BD0208951092BD0208957E
:101B70009091BC02892B8093BC020895809590912E
:101B8000BC0298239093BC0208951092BC02089561
:101B900008950E94C80D089590919202292F28233C
:101BA00031F080958923809392020E94C90D089597
:101BB00008950E94D80D089590919302292F28230B
:101BC000281729F0982B909393020E94D90D08951D
:101BD00090919302292F282331F0809589238093B7
:101BE00093020E94D90D089580919302882329F0D1
:101BF0001092930280E00E94D90D0895CF93C09176
:101C0000BD028091BC02C82B80919302882331F0E1
:101C1000C82B0E94902281110E94F40D8C2FCF912D
:101C20000895CF93DF93C0910601D09107010E94E0
:101C3000FE0D8883C0910601D091070148E050E075
:101C400069E872E0CE010E94202D892B59F088E0CE
:101C5000FE01A9E8B2E001900D928A95E1F7CE016C
:101C60000E941F22DF91CF910895CF93DF93C091FF
:101C70000401D09105010E94FE0D8983C0910401E9
:101C8000D091050140E250E069E672E0CE010E9489
:101C9000202D892B59F080E2FE01A9E6B2E00190E7
:101CA0000D928A95E1F7CE010E942A22DF91CF9111
:101CB00008950E940224813039F48091550387FFF2
:101CC00003C00E94350E08950E94110E08950895D4
:101CD0000E94670E08959091560392FF11C098E0FC
:101CE000899F90011124622B609391020E94B30995
:101CF000809191028695869586950E94680E08953A
:101D00000E94B30908951092910280E00E94680E2B
:101D10000895909191028095892380939102282FB4
:101D2000277069F4891759F09091560392FF07C004
:101D30008695869586950E94C3090E94830E089514
:101D40009091560392FB222720F9281769F080FB17
:101D500092F99093560380915503909156030E94F7
:101D6000EF0E82E00E94890E08958091560382FB57
:101D7000882780F991E089270E94A00E089581E0CC
:101D80000E94A00E089580E00E94A00E08956FEFBB
:101D90007FEF90E080E00E94782D089590E080E051
:101DA0000E94442D21E0853E9E4F09F020E0822FC5
:101DB000089582E090E00E94362D089583E090E03F
:101DC0000E94362D90E00895682F83E090E00E94F5
:101DD0005A2D089584E090E00E94442D0895BC019E
:101DE00084E090E00E94782D0895AB01BC018FE063
:101DF00090E00E946C2D0895AB01BC0183E190E05E
:101E00000E946C2D089560E070E0CB010E94FC0EF2
:101E1000089560E070E0CB010E94F50E0E94030F70
:101E20000895A8E0B0E0E7E1FFE00C945A2C65EEDD
:101E30007EEF90E080E00E94782D60E082E090E00C
:101E40000E945A2D81E090E0909327028093260211
:101E50000E94E40E60E074E184E090E00E94782D3E
:101E600060E086E090E00E945A2D60E087E090E01C
:101E70000E945A2D40E050E0BA0188E090E00E94B4
:101E80006C2D60E083E290E00E945A2D60E08CE0CF
:101E900090E00E945A2D60E08DE090E00E945A2D63
:101EA00019821A821B821C821D821E821F82188642
:101EB00048E050E067E170E0CE0101960E944A2DB3
:101EC00040E050E0BA018FE190E00E946C2D0E944A
:101ED000090F2896E2E00C94762C0E94110F0895C9
:101EE000682F8EE090E00E945A2D0895A6E0B0E0A1
:101EF000ECE7FFE00C94582C0E94B5248C018091F3
:101F0000BE029091BF028017910781F019821A8258
:101F10000E94B524682F49815A81792F80E090E092
:101F20000E9489051093BF020093BE022696E4E04A
:101F30000C94742C0E94C1246093D0027093D1023F
:101F40008093D2029093D3026093CC027093CD021F
:101F50008093CE029093CF020895089508950E9431
:101F6000AD0F089508950E94B20F0E94AF0F08951B
:101F700008950E94B80F089508950E94BC0F0E9412
:101F8000B90F089586EA92E10E9420140E94AE0FD4
:101F90000E94B30F089581E008950E94CB0F089529
:101FA0000E94CB0F08950895089508950E94D30FBD
:101FB0000E94D40F0E94D50F08950E94CE0E811169
:101FC00002C00E946D0F0E94D90E8093D4020E941D
:101FD000EA0E90935603809355030E94D51D0E94EC
:101FE000DE0E0E94770980912402909125020E94C2
:101FF000980908950E94AC240E947B130E94DD0F73
:102000000E9461050E94681D0E94C51B0E94BC1AA7
:102010000E94BD0F0895A6E0B0E0E1E1F0E10C946C
:102020004E2C0E94CD0F81110EC00E94760F0E948F
:10203000B11B0E94671D0E9474200E9470052696A5
:10204000EEE00C946A2C0E94911320EC822E22E088
:10205000922E640110E0F601E190F1906F01812F62
:102060000E94C2121F5F163009F44BC0E816F90631
:1020700091F38091D40281FD0E94CB120E94D00F77
:10208000782E10E066246394812F0E94C2127C0196
:10209000F401A190B1904F018A159B0561F100E018
:1020A000CC24C394D12CAE24BF24C5018C219D2106
:1020B000892BC1F07720B1F009831A830E94B524DF
:1020C0009C838B836D8221E0C7018C219D21892B0C
:1020D00009F420E049815A816B817C818D81922FA6
:1020E0000E9489050F5FCC0CDD1C0031F1F6F40174
:1020F0003297F182E0821F5F163031F60E949A0F0C
:1021000096CFE816F90609F0B4CF8FCF1F93CF937F
:10211000DF930E94B511EC01C11580E5D807F0F5F9
:10212000C11580E4D80708F09CC0C03ED10520F559
:10213000CD3CD10508F082C0C83AD10578F4C53A43
:10214000D10508F073C0C130D10519F1209709F10C
:10215000C430D105F0F4D0E0C0E01BC0C33CD105D1
:10216000D0F7C85AD0E0CC0FDD1FC659DE4F09901A
:10217000D881C02DD4640DC0C11580E2D80708F005
:10218000D1C0C11581E0D80708F05AC0C83ED105BA
:1021900010F7CE01DF91CF911F910895C03682E5EF
:1021A000D80718F5C03482E5D80708F06BC0C032F4
:1021B00082E5D80708F05FC0C11582E5D80708F4AA
:1021C00097C02C2F2695269580E2289F90011124F8
:1021D0008C2F8370C1E0D0E002C0CC0FDD1F8A9548
:1021E000E2F7C22BD32BDD68D4CFC03A82E5D80703
:1021F00060F4C03882E5D80708F459C0CF71D0E048
:10220000DC2FCC27C46FD06AC4CFC03C82E5D8078E
:1022100008F462C0C03E82E5D80708F09CCFDC2FEE
:10222000CC27CC27DF71C06FD06AB3CFC55AD0E0BE
:10223000C056DE4FC881D0E0D064ABCFD065A9CF07
:102240008D2F0E945712182FCE0199270E94B51189
:10225000C12FD0E0DC2FCC27CC27DF71C82BD92BA6
:1022600098CFCE0199270E94B511CC27DF70C82BDB
:10227000D92BD06A8ECFCF71D0E0DC2FCC27C16FA5
:10228000D06A87CF2C2F26952695277080E2289F2D
:10229000900111248C2F8370C1E0D0E002C0CC0FDC
:1022A000DD1F8A95E2F7C22BD32BDC6872CF2C2F6F
:1022B00026952695277080E2289F900111248C2F67
:1022C0008370C1E0D0E002C0CC0FDD1F8A95E2F739
:1022D000C22BD32BDA685DCF8C2F8F710E945712DF
:1022E000C82FD0E0DC2FCC27CC27DF71D06251CFB4
:1022F0008C2F8F710E94571255E0D695C7955A952D
:10230000E1F7CF70D0E0DC2FCC27282F30E084FF1E
:1023100005C044E0220F331F4A95E1F7C22BD32BAF
:10232000D06937CF8D2F8F710E945712182FCE0191
:1023300099270E94B511C12FD0E0DC2FCC27CC27E4
:10234000DF71C82BD92BD2CF462F763030F46031D5
:1023500020F4672F0E94F603089590E080E008952E
:102360000E94A4110E948610089582389105B9F147
:10237000B0F48133910509F47DC048F489329105A8
:1023800009F46DC08A32910509F47BC00895853344
:10239000910509F45FC08933910509F10895833EE1
:1023A0009105D9F138F4803E910529F1823E9105DD
:1023B00079F10895863E9105D9F1873E910509F49A
:1023C0003EC0843E910541F52091560321FF24C073
:1023D0008091550384FD19C087EE90E00895209107
:1023E0005503237009F05AC02091560323FF14C0EF
:1023F00089E290E008952091550320FD38C0309186
:10240000560330FF09C024FF43C090E080E00895E8
:102410002091550322FDF7CF08952091550322FD09
:102420003AC03091560330FD39C024FFF5CFEDCFCF
:102430002091550323FFF0CF24FDE7CFCDCF20918E
:10244000550323FD2EC03091560331FFEECF84EEAD
:1024500090E008952091550325FFDECFC9CF20914C
:10246000550325FD21C02091560323FFD5CF89E3D5
:1024700090E0D2CF2091550326FFCECF8AE290E0A4
:1024800008952091550326FFC7CF81E390E008957A
:1024900083EE90E0089582EE90E0089580EE90E063
:1024A000089586EE90E0089585E390E00895909178
:1024B000550392FF10C041E0282F2471243009F009
:1024C00040E031E0282F2871283009F030E0431730
:1024D00011F02CE0822793FF10C041E0282F2471D7
:1024E000243109F040E031E0282F2871283109F02B
:1024F00030E0431711F02CE082273091560330FF73
:1025000010C051E0282F2171213009F050E041E046
:10251000282F2871283009F040E0541711F029E0E5
:10252000822731FF10C041E0282F2171213109F0AD
:1025300040E031E0282F2871283109F030E04317BE
:1025400011F029E0822794FD877E089580E00895A8
:10255000CF939C01205E3245C1E02032310538F432
:10256000FB01C581C11103C08F710E9485048C2FAE
:10257000CF91089508950E94BA12089508950E9477
:10258000BE120895E82FF0E0EE0FFF1FED59FC4F4B
:10259000808191810895089580EA8A95F1F70895E0
:1025A00000C008950E94CC120895F894E82FE29597
:1025B000EF70F0E031A1282F2F7081E090E001C092
:1025C000880F2A95EAF7982F9095932391A392A1CB
:1025D000892B82A3789408950F931F93CF93DF9351
:1025E000C3EBD1E089918F3F11F00E94D51281E0B9
:1025F000C93BD807B9F7C3EAD1E003EB11E08991F1
:102600008F3F11F00E94D5120C171D07C1F7DF9103
:10261000CF911F910F910895AF92BF92DF92EF92E9
:10262000FF920F931F93CF93DF938C01D62EC62F6B
:10263000D0E0CE018D549E4F7C01FC0120812F3FC4
:1026400009F44CC0F894E22FE295EF70F0E031A16C
:102650002F7081E090E001C0880F2A95EAF7932F50
:10266000982B91A392A18095892382A378940E94AC
:10267000D012E3EAF1E041E050E0B12CA12C21912D
:102680002F3FB1F1A22FA295AF70B0E090968C9140
:1026900090E02F7002C0959587952A95E2F780FD0E
:1026A00027C0CA01A82AB92A440F551F81E0E33B7D
:1026B000F80729F7F70180818F3F11F00E94D512AA
:1026C00061E0A114B10409F460E08D2D0E94D212E2
:1026D000CC0FDD1FC00FD11FB982A882DF91CF912F
:1026E0001F910F91FF90EF90DF90BF90AF900895F2
:1026F00090E080E0D7CF0E94EC128CE0E3E6F3E0BC
:10270000DF01982F1D929A95E9F7E7E5F3E0DF01E5
:102710001D928A95E9F786E00E94CC130E94BB12B5
:102720000895ACE0B0E0E7E9F3E10C94572C8E019A
:102730000F5F1F4F8CE0F80111928A95E9F7F12C99
:102740006F2DC8010E940C13F394F6E0FF12F8CF2E
:102750004CE050E0B80187E593E00E94202D21E095
:10276000009709F420E0892B41F08CE0F801A7E5FF
:10277000B3E001900D928A95E1F746E063E673E0DD
:1027800087E593E00E94CD13182F0E94BF12812F7E
:102790002C96E5E00C94732C0895B0E0A0E0E3EDF6
:1027A000F3E10C94542C6C017B01042FC22F2223E3
:1027B00079F081E08093D7020E94B5249093D602ED
:1027C0008093D50280E0CDB7DEB7E8E00C94702CA2
:1027D000D091D702DD23B1F38091D5029091D6023A
:1027E0000E944424059770F310E0000F111FA80108
:1027F000B601C7010E94202D892B31F0A801B60136
:10280000C7010E942D2DCD2F1092D7028C2FDBCF28
:102810000E940B1008950E944E240E9469260E9477
:10282000C20F0E9483260E94FA0F0E9490260E94E7
:1028300095260E9408140E94AF260E94D60FF7CF5B
:102840009093ED018093EC0108950F931F93CF9324
:102850008C01FB01C581CC2309F447C00E94A50D62
:102860008272F801E052F847EB30F10538F4E55494
:10287000F24D0C94132C0E94AE1AC0E08C2FCF9115
:102880001F910F910895882329F00E949C1AF5CF7B
:102890008823D9F30E948C1AF0CF882329F00E9454
:1028A0001E17EBCF8823D9F30E940F17E6CF88239A
:1028B00029F00E944017E1CF8823D9F30E942F17F7
:1028C000DCCF882329F00E946217D7CF8823D9F361
:1028D0000E945117D2CF882329F00E94E715CDCF4F
:1028E0008823D9F30E94C715C8CFC1E0C7CFEF92A4
:1028F000FF920F931F93CF93DF939B01682F3111AA
:102900000EC0442329F0E82FF0E0EA53FB4F649116
:10291000762F862FCDB7DEB7E6E00C94722CC32F4E
:10292000D0E0E82FF0E0442321F0EA53FB4FE4919C
:10293000F0E046E0249FC00111240FEF10E0B80141
:102940000E94C92BAB01822F90E0880F991F25E5CB
:10295000249FB001259F700D1124861B970B982F83
:10296000990F980FB8016C1B7D0B6E9FD0016F9F64
:10297000B00D7E9FB00D11248B2F939F90011124D9
:10298000232F3327B801621B730B6E9F90016F9F3B
:10299000300D7E9F300D11247801E91AF108EC9E6C
:1029A000B001ED9E700DFC9E700D1124672F7727EE
:1029B000061B170B0E9FE0010F9FD00D1E9FD00D21
:1029C00011247D2F9E2F4230510599F048F4411576
:1029D000510569F04130510581F07B2F832F07C0ED
:1029E0004430510569F080F046305105B1F7692F48
:1029F00091CF9B2F8D2F7E2FFACF7E2F932FF7CF46
:102A00009D2F7B2F8E2FF3CF732F9B2FFBCF41E07A
:102A10000E947714089508950E94071508959091D3
:102A20000B01291B922FE091E601F091E701242F81
:102A3000462F682F892F90E009950895CF93DF9353
:102A4000762FE901682F842F0E940C15962F672F8F
:102A50009E01482F892F0E940F15DF91CF91089575
:102A600080916F03982F9C7F29F4837084608093FA
:102A70006F0308958C3AE8F38370886AF8CFB0E06A
:102A8000A0E0E5E4F5E10C94542C88E090E00E948D
:102A90003E2D6B017C0183E290E00E94362D282FB1
:102AA00030E040E050E060E070E080E090E000E284
:102AB0000E94812CB22FA32FF42FE52FD62FC72FE2
:102AC00097018601BC29A12BFE295E2F532B2B2FAA
:102AD0003A2F4F2F6D2F7C2FCDB7DEB7E8E00C9447
:102AE000702CB0E0A0E0E7E7F5E10C94502C490130
:102AF0005A016B017C010E9430158401A4016A2DEA
:102B00007B2D88E090E00E946C2D94014A2D5B2D76
:102B1000B601C70100E20E949C2C622F83E290E084
:102B20000E945A2DCDB7DEB7ECE00C946C2CEFE68A
:102B3000F3E085E0808311828FEF828383831482A8
:102B4000758125E030E04FEF5FEF60E0868197818F
:102B50000E947115089590917303933018F49F5F4C
:102B600090937303882391F020916F033091700349
:102B700040917103509172036091730370917403DB
:102B800080917503909176030E947115089581E0FC
:102B90000E94AB15089590917303992319F09150F9
:102BA00090937303882391F020916F033091700309
:102BB000409171035091720360917303709174039B
:102BC00080917503909176030E947115089581E0BC
:102BD0000E94CB1508950F931F93CF9380916F039D
:102BE00080FF09C0E091EA01F091EB010995CF91D6
:102BF0001F910F910895C0910D010091E601109170
:102C0000E70180910E01C81768F780910B019C2F96
:102C1000981B892F20E040E060E090E0F8010995E2
:102C2000CF5FEFCFEF92FF920F931F93CF93DF937E
:102C3000D82F162F042F80916F0380FF0CC0C091F6
:102C40000D01E090E601F090E70180910E01C817B8
:102C500038F00E94EB15CDB7DEB7E6E00C94722C8D
:102C600080910B019C2F981B892F202F412F6D2FB6
:102C700090E0F7010995CF5FE8CF762F90916F0331
:102C800090FF0AC0682F842F0E940715962F672F88
:102C9000482F892F0E9412160895CF93DF93EC01DD
:102CA000EC81F0E0EF53FC4F4491EFE6F3E06281FA
:102CB00081810E943D168C818F5F8C83DF91CF9143
:102CC0000895CF93DF93EC01EFE6F3E04381628157
:102CD0008C810E943D168C818F5F8C83DF91CF9118
:102CE0000895CF93DF93EC01409172039C81892F6B
:102CF000817090FD842F692F627091FD642F92FF87
:102D000040E00E9412168C8190E00196877099270E
:102D10008C83DF91CF910895B0E0A0E0E2E9F6E185
:102D20000C94552CD82FF62E142FE22E90916F0371
:102D300090FF2FC0E92FE695E695AE2FB0E0A7549F
:102D4000BE4F8C91809333039C7F943039F56D2F67
:102D50007F2D842F0E940715962F672F482F892FCC
:102D60000E941216D0937003F092710310937203B5
:102D7000EE2079F020916F036091730370917403DA
:102D80003D2F4F2D512F80917503909176030E9416
:102D90007115CDB7DEB7E7E00C94712C823019F4D1
:102DA00010917203DFCF863019F4D0917003DACF1F
:102DB0008930D9F38931B1F6E9518E2F8170D82E3F
:102DC000E695F0E0EF53FB4FC49100E060910F01F6
:102DD000061718F00E94EB15C5CF0C9FC0011124F7
:102DE00070E00E94C92B8D2FD1100CC0860F20914E
:102DF0000D01200F3327331F412F6F2D0E941E1509
:102E00000F5FE4CF861BF3CFEFE6F3E09181282F2D
:102E10004381628188E0890F0E948C16089581E0C9
:102E20000E9404170895EFE6F3E09181282F438173
:102E3000628188EF890F0E948C16089581E00E94BC
:102E400013170895EFE6F3E0628128E0620F08F4BB
:102E50006FEF282F438181810E948C16089581E0B5
:102E60000E9422170895EFE6F3E0628128E0621BDA
:102E700008F460E0282F438181810E948C16089518
:102E800081E00E9433170895EFE6F3E0438128E0E4
:102E9000420F08F44FEF282F628181810E948C1627
:102EA000089581E00E9444170895EFE6F3E043811E
:102EB00028E0421B08F440E0282F628181810E94B3
:102EC0008C16089581E00E945517089520E00E9415
:102ED0008C160895EF92FF921F93CF93DF93EC012E
:102EE00010E0EE24EA94F12C60910F01161770F0B7
:102EF0000E94EB159A818C8190FF1EC08F5F8C839E
:102F0000DF91CF911F91FF90EF90089520910D01D7
:102F1000210F3327331F70E0C7010E94DD2B962F4E
:102F20008C814091720360917103199F800D11246F
:102F30000E941E151F5FD8CF8150E1CFB0E0A0E006
:102F4000E4EAF7E10C94532CFC018281DFEF80FF6F
:102F5000D1E0C0E00091E6011091E70180910F01FE
:102F6000C81798F00E94EB158091D902D13009F072
:102F70004DC0811102C080910F0181508093D90210
:102F8000CDB7DEB7E9E00C946F2C80910D019091E4
:102F90000B01891B8C0F20E040E060E090E0F8011D
:102FA000099594E0E92EF12CB12CCC2ED12C8091F6
:102FB000D9028B0D813124F18F70082E000C990BF2
:102FC000C816D906B1F420910D012C0D3D2D311DEF
:102FD000809172038E9DA0018F9D500D11245595F7
:102FE00047955595479560917103809170030E94B4
:102FF0001E15BD0EF1E0EF1AF108C9F6CF5FAECF96
:1030000087FFDBCF90910F01890FD7CF90E001961A
:1030100060910F0170E00E94DD2BB0CF0F931F93E2
:10302000CF93C0910D010091E6011091E7018091CD
:103030000E01C81750F1C0E00091E6011091E701C0
:1030400060910F01C61770F10E94EB1520910901E4
:103050008091D802820F8093D80290910A01920F3A
:1030600090930A01191654F4082E000C990B409104
:103070000F014150550B841795071CF021952093A3
:103080000901CF911F910F91089580910B019C2F01
:10309000981B892F20E040E060E090E0F80109955E
:1030A000CF5FC5CFEC2FF0E070E0CF010E94DD2BA9
:1030B00020910D01820F2091D802022E000C330BBB
:1030C000E217F307A4F020910A01022E000C330B43
:1030D0002E173F0764F0282F30E040917203609173
:1030E0007103809170030E941E15CF5FA9CF90914C
:1030F0000B01891B20E040E060E090E0F8010995B9
:10310000F4CFB0E0A0E0E7E8F8E10C94502CEC013B
:103110004C81042F10E09801D8010E94212C9B01C2
:10312000AC010E94372C4B015C01E0E2F0E0E01BB7
:10313000F10BA5E5B0E0AC019B010E94372C6B01BF
:103140007C019F01DF010E94192C9B01AC010E94B0
:10315000422C9B01AC01280D391D4A1D5B1DC70186
:10316000B6010E94F12BF22E822F90E039E23F153A
:1031700020F143E0249F9001112435952795122FCB
:10318000109500E085E5E82EEF1880910F010817F3
:1031900020F10E94EB159C8181E0992319F0903277
:1031A00019F48FEF8093080180910801890F8C83B7
:1031B000CDB7DEB7ECE00C946C2C25E530E0A9012E
:1031C000481B590BCA019A01220F331F280F391FC0
:1031D00037FFD3CF2F5F3F4FD0CF8E2D01FD8F2DE7
:1031E00020910D01200F3327331F412F6091710370
:1031F0000E941E150F5FC9CF0F931F93CF93DF93CC
:103200008C01D0E0C0E090910F019C171D0609F0E1
:1032100074F40E94EB15F801848190E001968170AE
:1032200099278483DF91CF911F910F910895F80121
:10323000448120910D012C0F3D2F311D60917103B0
:103240008091700396959C171D0649F044F0442325
:1032500041F0409172030E941E152196D4CF442361
:10326000C1F340E0F8CFB0E0A0E0E9E3F9E10C946D
:103270004C2CFC016280448081E08483E1ECF3E02B
:103280007490E0E4F4E0E491C0917203C695C158F3
:10329000D0E0CC0FDD1FCD2FDD27812C25E0922E35
:1032A000AA24AA94B12C55245A94E719EE2EF12C95
:1032B00080910F01881638F00E94EB15CDB7DEB76C
:1032C000E0E10C94682CC82CD12C82E0861568F0C3
:1032D0009C9CF0019D9CF00D1124E652FD4F8091C5
:1032E0007003808380917103818341101CC09C9C7A
:1032F000F0019D9CF00D1124E652FD4F13821282C5
:1033000020910D012C0D3D2D311D9C9CF0019D9CAB
:10331000F00D1124E652FD4F4281618180810E94AF
:103320001E158394C5CF9C9C80019D9C100D11247B
:1033300006521D4FF80183818823F1F08150838369
:10334000859DC0011124648170E00E94C92BFB019E
:10335000FF27EF53FC4F8491E82FE719E59DC0014B
:103360001124B7010E94C92B80917203689FB0019C
:103370001124F8017283C4CF0E94032DB5010E946D
:10338000DD2B8C179D070CF0BBCFF2E0F61598F4FF
:103390000E94032DB5010E94DD2BF80180830E945D
:1033A000032D209171032695622F70E00E94DD2B82
:1033B000280FF80121839C9CF0019D9CF00D1124A5
:1033C000E652FD4F128280917203893C58F088ECDE
:1033D0009C9CF0019D9CF00D1124E652FD4F8483CE
:1033E00083838ECF8431A0F784E1F2CFEFE6F3E060
:1033F00020812E7F208331814281538164817581B8
:10340000868197810E947115109234030E94EB15FA
:103410000895EFE6F3E080818E7F8083109234037D
:103420000E94EB15089510923403809131038111AD
:103430000AC081E08093310380916F038170809393
:1034400030030E94091A089560916F03669566958E
:1034500070E04BE050E080E191E00E94132D892B59
:1034600019F481E0809334030E94B52490932B03D8
:1034700080932A03089590916F0390FF34C0937056
:10348000811132C0946090936F03662391F0209174
:103490006F033091700340917103509172036091FA
:1034A00073037091740380917503909176030E9469
:1034B000711560916F036695669570E04BE050E082
:1034C00080E191E00E94132D892BB1F0109234031A
:1034D00081E080932D03409172036091710380918C
:1034E00070030E94661708958B3210F0986ACBCF54
:1034F000880F880F982BC7CF0E94241AE9CF682F16
:1035000090916F039695969581E0890F8B3208F024
:1035100081E00E943B1A089581E00E947F1A08957D
:10352000682F90916F03969596958FEF890F09F408
:103530008AE20E943B1A089581E00E94901A089541
:1035400061E00E943B1A0895EFE6F3E0808181601C
:103550008083869586950E94A01A089580916F03B6
:1035600080FF03C00E94F61908950E94A41A0895CE
:1035700060E00E943B1A08958091320381113CC0A3
:103580000E943F1520936F033093700340937103A3
:103590005093720360937303709374038093750365
:1035A000909376032C7FA1F40E9497150E943F15FB
:1035B00020936F0330937003409371035093720311
:1035C00060937303709374038093750390937603F1
:1035D0000E94301510923403E091E401F091E5016E
:1035E000099580916F0380FF04C0869586950E949F
:1035F000B81A81E0809332030895EFE6F3E080810A
:1036000081608083869586950E94B81A08951092ED
:1036100031038091300381110E94FD1A0E94241A07
:1036200008950F931F93CF93DF93809134038823E2
:10363000C1F180913303E0916F03E695E695E81BB5
:10364000E0932C03823091F5F0E0E354FC4FE491D9
:10365000CE2FD0E00DE416E180912D03882361F098
:1036600010922D030E94B52490932B0380932A037C
:1036700010922F0310922E030E94B524E0912A038A
:10368000F0912B038E1B9F0B8F3F9F4750F4EC0F45
:10369000FD1FF0932B03E0932A038AE293E0F801E5
:1036A0000995DF91CF911F910F910895863049F4CC
:1036B000F0E0E654FC4FE491CE2FD0E001E616E1B5
:1036C000CBCF893051F4E695F0E0E954FC4FE4911A
:1036D000CE2FD0E00AE617E1BFCF8F3051F4E69548
:1036E000F0E0EC54FC4FE491CE2FD0E00EE917E16E
:1036F000B3CF853149F4F0E0EF54FC4FE491CE2F85
:10370000D0E00EE018E1A8CFC8E2D0E001E818E16F
:10371000883109F4A1CF833239F4EFEAF3E0C5919F
:10372000D49101E716E198CFC4EFD1E00CEF18E196
:10373000843209F491CFC0EDD7E00BE015E185327A
:1037400009F08ACF8E2F63E00E94BD2BE92FF0E0B5
:10375000E455FC4FE491CE2FD0E003E319E17CCF98
:1037600008950E94111B089586E090E00E94362D76
:103770000895682F86E090E00E945A2D08958DE20A
:10378000809377030E94B91B08950E94B41B809315
:10379000770382FF0E94BF1B80917703803320F064
:1037A000877088628093770390917703892F817067
:1037B00090FF04C0892F8695869586950E94C61C29
:1037C000089580917703982F9695969596959530C4
:1037D00040F49F5F990F990F990F8770892B809301
:1037E0007703809177038160809377030E94B91BF0
:1037F000809177038695869586950E94C61C0895CC
:1038000080917703982F987F79F088508093770381
:10381000887F91E009F490E08091770390FB80F934
:10382000809377030E94B91B8091770386958695D4
:1038300086950E94C61C08958091770380FD13C071
:10384000816080937703813019F489E08093770356
:10385000809177030E94B91B8091770386958695A6
:1038600086950E94C61C08958091770380FF08C04A
:103870008E7F809377030E94B91B80E00E94C61C54
:1038800008958091770380FF03C00E94341C08953F
:103890000E941C1C089590917703892F8695869528
:1038A00086958F5F8F7197708630E0F4880F880F50
:1038B000880F892B8093770380917703887F91E02D
:1038C00009F490E08091770390FB80F9809377036F
:1038D0000E94B91B809177038695869586950E94F4
:1038E000C61C089590937703E7CF863008F085E0F3
:1038F000909177039770282F220F220F220F922B7F
:1039000090937703987F21E009F420E0909177036A
:1039100020FB90F9909377030E94C61C08950E94A3
:10392000751C809177030E94B91B08959C01FB01CF
:103930008581882349F12230F8E73F07F9F040F408
:103940002115E8E73E0769F02130384779F00895FE
:10395000243098E7390779F058F02530384789F056
:10396000089585E00E948F1C80E0089580E0FACFE2
:103970000E94001CF9CF0E94E11BF6CF0E94411C5F
:10398000F3CF0E944B1CF0CF81E008958F929F925D
:10399000AF92BF92EF92FF920F931F93CF93DF935B
:1039A0008630B0F5811135C0909180009F7D909355
:1039B0008000A0918600B0918700282F30E00E94FF
:1039C000212C25E030E040E050E00E94F12B8901FD
:1039D0009A0180918600909187006CE070E00E94CF
:1039E000C92B60177107C8F0C80169E070E00E9438
:1039F000C92B70938B0060938A00DF91CF911F9148
:103A00000F91FF90EF90BF90AF909F908F9008958F
:103A100085E0909180009062CACF8091860090915D
:103A20008700E0908600F0908700E0918600F0919A
:103A30008700C6E0D0E0BE010E94C92B060F171F09
:103A4000211D311D4801590185E0880C991CAA1CD3
:103A5000BB1C8A95D1F7C701BE010E94C92B9F01EB
:103A600050E040E0260F371F411D511DC501B40134
:103A70000E94F12B49015A01E0918600F0918700E4
:103A8000CA01B9010E94AD2B9B01AC01DF010E946C
:103A9000372C9B01AC01C501B4010E94AD2B2FE076
:103AA00096958795779567952A95D1F70091860029
:103AB0001091870030E020E0061717072807390724
:103AC00008F097CF609186007091870092CF08959B
:103AD000269A2E9882E28093800089E1809381006B
:103AE0008FEF9FEF90938700809386000E94C51B05
:103AF00008956A9A0895FC01EE0FFF1FE80FF91F61
:103B0000E858FC4F6183408322830895E8E7F3E09F
:103B1000818360834283339693E0E83AF907C1F7E3
:103B200008953EB13B7F2EB124604FB7F89488E7EB
:103B300093E0FC015191CF0168E02EB9000000C074
:103B400057FF3EB9550F000000C000C000C03EB98D
:103B500000C06A9591F7F3E0883A9F0751F74FBF8D
:103B60008FE594E00197F1F700C0000008950E94EE
:103B7000C70E089580E00E94C212817008950E94CD
:103B800091132FEF86E791E0215080409040E1F7BC
:103B900000C000000E9491130E94BA1D882321F0EA
:103BA0000E94B71D0E94F12408950E94BF1D089530
:103BB000CF93DF93EB0186319C4711F50E94A50D51
:103BC0009D81992399F08A7A91E009F490E090938D
:103BD0003503811109C089E20E943E230E94590EDB
:103BE00080E0DF91CF91089585E3F6CF8091350392
:103BF000811104C089E20E945823F0CF85E3FBCFF6
:103C000081E0EFCFCF93DF93EC01FB018581882327
:103C100009F4D2C09E0130572332310508F0B2C0FA
:103C20000E94EA0E9093560380935503FE01E150E3
:103C3000F047E232F10520F4EA53F24D0C94132CD4
:103C40008091550381608093550393C08091560302
:103C50008860809356038DC0809155038260F3CFB6
:103C6000809155038460EFCF809155038860EBCF3E
:103C7000809156038160EDCF809156038260E9CF39
:103C8000809155038061DFCF809155038062DBCF47
:103C9000809155038064D7CF0E942A0980915503F3
:103CA0008068D1CF809155038C60CDCF8091560331
:103CB0008360CFCF809155038E7FC5CF809156030F
:103CC000877FC7CF809155038D7FBDCF80915503EE
:103CD0008B7FB9CF80915503877FB5CF80915603F5
:103CE0008E7FB7CF809156038D7FB3CF80915503E0
:103CF0008F7EA9CF809155038F7DA5CF80915503ED
:103D00008F7BA1CF0E942A09809155038F779BCF8B
:103D100080915503837F97CF809156038C7F99CFF5
:103D20008091550382FB992790F921E0922790FB1F
:103D300082F990FB83F987CF80915603982F909555
:103D400091708E7F892B90FB81F983CF90915503E1
:103D5000892F8F7B96FF806476CF0E942A099091ED
:103D60005503892F97FB87F980586DCF81E00E941A
:103D7000700F80915503909156030E94EF0E0E94A0
:103D80002A0980E0DF91CF91089580E0F0CF9091F3
:103D90005503892F8F7E94FF806155CF90915503F5
:103DA000892F8E7F90FF81604ECF90915603892F8F
:103DB000877F93FF88604DCF81E0E4CF282F35EBDC
:103DC0002303C001112497FF04C080589109892F53
:103DD000089580589F4FFBCF80913C0380FF0DC01A
:103DE0006091200170E0660F771F6038710570F5F3
:103DF0006115710569F1862F089581FF07C06091F3
:103E0000200184E0689FB0011124EFCF6091200170
:103E100082FD0AC080913B038823A9F020911F01F5
:103E200060912001821710F088E0ECCF869FC001DE
:103E3000112433E0880F991F3A95E1F7622F70E063
:103E40000E94DD2BD2CF68E070E0D5CF8FE70895D8
:103E500081E0089580913C0380FF0CC060911C01BB
:103E600070E075956795759567956115710549F1D0
:103E7000862F089581FF06C060911C0170E0759542
:103E80006795F3CF60911C0182FD0BC090913A03BE
:103E90009923A1F060911B0180911C01961738F0C5
:103EA000682F70E06038710500F38FE70895899FEF
:103EB000C001112470E00E94DD2BF4CF61E070E0BE
:103EC000D7CF81E008958D3C31F40E94EC1E81959E
:103ED0008093400308958E3C19F40E94EC1EF8CFA5
:103EE0008F3C31F40E94EC1E819580933F0308952E
:103EF000803D19F40E94EC1EF8CF893D29F40E9400
:103F00002A1F8093410308958A3D21F40E942A1FAD
:103F10008195F7CF8B3D31F40E942A1F81958093C4
:103F2000420308958C3D19F40E942A1FF8CF9FE2A6
:103F3000980F983070F4815D990B21E030E001C05A
:103F4000220F8A95EAF780913E03822B80933E03ED
:103F500008958D3D31F480913C03816080933C0352
:103F600008958E3D21F480913C038260F7CF8F3D10
:103F7000B9F780913C038460F1CF40913F038D3CC1
:103F800059F48091400387FF0DC010924003411106
:103F90000BC010923B0308C08E3C81F4809140031B
:103FA00018169CF3442381F08091410390914203C1
:103FB000892B09F05AC010923A0308958F3C49F4B6
:103FC00047FFF0CF10923F03809140038111ECCF67
:103FD000E0CF803D19F41416ACF3E4CF9091410387
:103FE000893D29F41916F4F610924103DBCF8A3D7E
:103FF00019F497FFD7CFF8CF909142038B3D29F466
:1040000097FFD0CF10924203CDCF8C3D19F41916F3
:10401000CCF3C8CF9FE2980F983090F4815D990B54
:1040200021E030E0B90102C0660F771F8A95E2F700
:10403000CB01809590913E03892380933E03B2CFBC
:104040008D3D31F480913C038E7F80933C03AACF59
:104050008E3D21F480913C038D7FF7CF8F3D09F099
:10406000A1CF80913C038B7FF0CF08950E94B524AF
:104070009C0190913F0380914003982B21F0309355
:104080003903209338039091410380914203982B88
:1040900021F030933703209336038DE393E00E94A1
:1040A0003822089586E0EDE3F3E0DF011D928A9562
:1040B000E9F710923B0310923A0310923C030895E3
:1040C000FC01828181110EC0838181110BC084812A
:1040D000811108C091E08581811101C090E0892F94
:1040E0008170089581E0FCCFA6E0B0E0EAE7F0E25D
:1040F0000C94592C86E0EDE3F3E0DE01119601907B
:104100000D928A95E1F710923F03109240031092AE
:104110004103109242038B819C81892B89F080910D
:104120003803909139030E944424AC0190913B03E1
:104130009923C9F1809121018417150608F440C024
:104140008D819E81892B91F0809136039091370368
:104150000E944424AC0190913A03992309F46AC067
:1041600080911D018417150608F472C0BE016F5FAF
:104170007F4F8DE393E00E948C23811105C08DE376
:1041800093E00E94602081110E94362086E0FE01AB
:104190003196ADE3B3E001900D928A95E1F7269652
:1041A000E3E00C94752C209122018AE0289F900175
:1041B00011242417350720F69F5F90933B0302C01C
:1041C0009F3FD1F71B81112359F00E94EC1E9FEFF6
:1041D00011160CF491E0899F802D112480933F03E8
:1041E0001C81112359F00E94EC1E9FEF11160CF454
:1041F00091E0899F802D11248093400380913F039B
:10420000882309F49DCF10914003112309F498CF1E
:104210000E94DE1E882351F080933F03812F0E946D
:10422000DE1E882329F0809340038ACF81E0F4CFFB
:1042300081E0F9CF20911E018AE0289F900111248E
:104240002417350708F092CF9F5F90933A0302C07E
:104250009F3FD1F71D81112359F00E942A1F9FEF24
:1042600011160CF491E0899F802D11248093410355
:104270001E81112359F00E942A1F9FEF11160CF482
:1042800091E0899F802D1124809342038091410306
:10429000882309F46BCF10914203112309F466CFF0
:1042A0000E94DE1E882351F080934103812F0E94DB
:1042B000DE1E882329F08093420358CF81E0F4CF9B
:1042C00081E0F9CF0F931F93CF93DF93C42FD22FA9
:1042D000FC0185818823C9F0409345030E94B524E1
:1042E000909344038093430380E28C0F883040F422
:1042F000C77081E001C0880FCA95EAF70E94D50611
:10430000DF91CF911F910F910895109145031413E0
:1043100032C080914303909144030E944424883C1E
:10432000910548F5C0E2CD0F1D17B9F080E2810F6D
:10433000883040F4177081E001C0880F1A95EAF7C1
:104340000E94DC06C83048F481E09D2F977001C0C0
:10435000880F9A95EAF70E94D506802F0E94CC0616
:10436000C83070F6D77081E001C0880FDA95EAF79F
:104370000E94DC06C5CF80E28C0F883008F6C7703B
:1043800081E001C0880FCA95EAF7F2CF0F93DB01F5
:1043900088519C4787309105A0F5FC01E851F24D0A
:1043A0000C94132C06E221EE41EE6AE17CE7CD018C
:1043B0000E94622180E00F91089507E225EE45EE0C
:1043C0006BE17CE7F4CF06E221EE40EE68E17CE7AA
:1043D000EECF07E225EE44EE69E17CE7E8CF06E2A6
:1043E00021EE42EE6CE17CE7E2CF07E225EE46EEFD
:1043F0006DE17CE7DCCF08E221E045EE6EE17CE791
:10440000D6CF15968C91882319F010924503D3CFFF
:1044100081E0D1CF90934B0380934A030895E091BC
:104420004A03F0914B03309729F00190F081E02D81
:104430000995089580E008950E940F220895E09163
:104440004A03F0914B03309721F00280F381E02D75
:1044500009950895E0914A03F0914B03309739F0A4
:1044600026E0DC012C930480F581E02D0995089568
:10447000E0914A03F0914B03309739F022E0DC01E0
:104480002C930680F781E02D09950895A3E0B0E014
:10449000ECE4F2E20C945A2C209148033091490349
:1044A00028173907A1F09093490380934803E091BE
:1044B0004A03F0914B03309751F023E029839B830B
:1044C0008A830084F185E02DCE010196099523961B
:1044D000E2E00C94762CA3E0B0E0E1E7F2E20C9489
:1044E0005A2C209146033091470328173907A1F031
:1044F0009093470380934603E0914A03F0914B0366
:10450000309751F024E029839B838A830084F185CE
:10451000E02DCE01019609952396E2E00C94762CCD
:10452000CF93DF93C0910601D091070122960E949C
:104530000224813081F48091550387FF0CC0C09123
:104540000401D091050122969EE180E0915028F46B
:10455000DF91CF91089596E0F8CF29912223B1F30E
:104560008F5FF4CFCF93C82F811102C080E024C0A9
:104570000E940224813011F58091550387FF1EC0EF
:10458000EC2FE695E695E695EE3180F780910401F3
:1045900090910501E80FF92FF11D228130E0C770DD
:1045A00081E090E002C0880F991FCA95E2F72823A6
:1045B000392381E0232BD1F2CF9108958091060118
:1045C00090910701FC013296089621912C1721F059
:1045D000E817F907D1F7CACF81E0EECF9C01FC01C3
:1045E00032969FEF80E04191461751F09F3F19F4BA
:1045F000411101C0982F8F5F8630A9F79F3F09F4C2
:104600000895290F311D97FD3A95F90162830895A8
:10461000FC01329608962191261303C0DF01119701
:104620001C92E817F907B9F70895E62FE695E69585
:10463000E695EE3168F4E80FF92FF11D677021E07F
:1046400030E001C0220F6A95EAF78281822B8283D3
:104650000895E62FE695E695E695EE3170F4E80FBD
:10466000F92FF11D677021E030E001C0220F6A953B
:10467000EAF720958281282322830895CF93C82FBB
:104680000E9402246C2F813061F48091550387FFD2
:1046900008C080910401909105010E941523CF91DB
:1046A000089580910601909107010E94EE22F7CFB4
:1046B000CF93C82F0E9402246C2F813061F4809127
:1046C000550387FF08C080910401909105010E9465
:1046D0002923CF91089580910601909107010E94AE
:1046E0000823F7CF0E940224813079F4809155038A
:1046F00087FF0BC0E0910401F091050132968EE135
:10470000DF011D928A95E9F70895E0910601F09185
:104710000701329686E0F4CFDC01FB0111969C91F3
:1047200011978181981322C012968C911297882339
:1047300019F0928189131AC013968C9113978823CC
:1047400019F09381891312C015968C9115978823BF
:1047500019F0958189130AC014969C91992321F030
:1047600081E02481291303C080E001C081E08170D1
:10477000089508950E94B923089581110EC081E023
:10478000809326016091230170912401809125017D
:10479000909126010E94BA23089582E0F1CF83E030
:1047A000809326016091230170912401809125015D
:1047B000909126010E94BA2308950E94BD23089576
:1047C00081E0809326016091230170912401809102
:1047D0002501909126010E94BA2308950E94E023AA
:1047E000089591E0811101C090E0909325016091BE
:1047F00023017091240180912501909126010E944E
:10480000BA23089580912501089580932401609131
:1048100023017091240180912501909126010E942D
:10482000BA23089580912401089580932301609113
:1048300023017091240180912501909126010E940D
:10484000BA230895809123010895089508950E9440
:1048500026240895089508950E9425240895CF934D
:104860000E942A240E9491130E942B24C0E08C2FC6
:104870000E94C212892B31F4CF5FC630C1F780E0AD
:10488000CF91089581E0FCCFCF93DF93EC010E949C
:10489000B5248C1B9D0BDF91CF91089585B780685F
:1048A00085BF85B7806885BF08951F921FB61F9288
:1048B00011248F939F93AF93BF9380914C038111E9
:1048C00013C08091A8039091A903A091AA03B0916D
:1048D000AB034196A11DB11D8093A8039093A9033A
:1048E000A093AA03B093AB03BF91AF919F918F9117
:1048F0001F901FBE1F9018958091B003843031F136
:104900000E94330510924C0388E190E020E40FB63A
:10491000F894A895809360000FBE2093600083B741
:10492000817F846083BF83B7816083BF78948895DB
:1049300083B78E7F83BF0FB6F894A89580916000EF
:10494000886180936000109260000FBE08950E94FD
:104950002A090E943F05089582E084BD93E095BD39
:104960009AEF97BD80936E0008952FB7F8948091C9
:10497000A8039091A903A091AA03B091AB032FBF04
:1049800008952FB7F8946091A8037091A9038091BE
:10499000AA039091AB032FBF089578941F921FB67E
:1049A0001F9211248F939F93AF93BF938091A8037D
:1049B0009091A903A091AA03B091AB030196A11D08
:1049C000B11D8093A8039093A903A093AA03B09369
:1049D000AB03BF91AF919F918F911F901FBE1F900E
:1049E000189581E08093E00080E28093D8001092D7
:1049F000C9008FE19EE40197F1F700C0000087E055
:104A000090EBDC018093B9039093BA03A093BB03AE
:104A1000B093BC0388E19CE00FB6F894A89580930E
:104A200060000FBE90936000FFCF88E19CE00FB65E
:104A3000F894A895809360000FBE90936000FFCF1C
:104A40009B01BA019091B0039430E9F48F70809388
:104A5000E9009FEF8091E800915085FD06C085ED4B
:104A60008A95F1F700009111F5CF8091E80085FF5C
:104A70000AC050E040E0C9010E9426278091E8006A
:104A80008E778093E800089543E050E0BC0182E017
:104A90000E942025089546E050E0BC0182E00E947B
:104AA0002025089540E250E0BC0182E00E942025CC
:104AB0000895CF93DF93EC010E94022448E050E078
:104AC000BE0181E00E94202588E0FE01ADE4B3E054
:104AD00001900D928A95E1F7DF91CF910895809131
:104AE000AF03811109C00E94B6280E94132980914A
:104AF000E20084608093E20008951092AF0308956D
:104B00000E94E02381E00E94F12308956091AC03AC
:104B100081E0611101C080E00E94CF23089590914F
:104B2000B00381E0943009F080E06091AC030E9412
:104B3000DD23089542E061EC81E00E94322842E2E8
:104B400061EC82E00E9432289091B00381E09430C1
:104B500009F080E06091AC030E94BD23089580912C
:104B6000B203833009F461C030F48130D1F1823076
:104B700009F49EC008958A3009F48AC08B3009F484
:104B80006FC0893009F050C08091B103813209F0C3
:104B90004BC08091B5039091B603029708F044C0D2
:104BA0008091E800877F8093E8008091E80082FF91
:104BB00037C09091F3008091F200029731F4809118
:104BC000F100813011F0863021F48091F1000E94D3
:104BD00005248091E8008B778093E8000E94662886
:104BE00023C08091B103813AF9F48091E800877F76
:104BF0008093E8008091B5039091B603892B61F40E
:104C000068E08DE493E070E00E9475278091E800F1
:104C10008B778093E800089560E090E080E0F3CF28
:104C20008091B0038111C1CF08958091B103813A81
:104C3000D9F78091B5039091B603892BA9F780919C
:104C4000E800877F8093E8008091E80080FFFCCF38
:104C50000E9402248093F1008091E8008E77BCCFFF
:104C60008091B103813201F78091B5039091B60331
:104C7000892BD1F68091E800877F8093E8000E941D
:104C800066288091B3030E94F1230E942A090895A7
:104C90008091B103813241F68091E800877F809353
:104CA000E8000E9466288091B4030E9415240895AC
:104CB0008091B103813A09F0B7CF8091E800877FF6
:104CC0008093E8008091E80080FFFCCF0E942224BE
:104CD000C1CF84B7877F84BF0FB6F894A895809121
:104CE0006000886180936000109260000FBE80E8D1
:104CF00090E00FB6F89480936100909361000FBE2E
:104D00000E94EE2308950E94B6280E941329E2EE25
:104D1000F0E080818460808378940E94922B0895D3
:104D200087E291E00E940A2208958091B0038530C5
:104D300031F48091B003853019F00E94A7240895C2
:104D40000E947C240E942F24882399F38091AE0333
:104D5000882379F30E9410270E942A09EACF089538
:104D60009A014091B7035091B8030E94B826089564
:104D7000492F55274330510519F168F44130510549
:104D800009F444C04230510509F445C090E080E088
:104D900050E040E025C04132510549F14232510511
:104DA000A9F784E490E047EF56E061157105C1F082
:104DB00086EB90E041E456E06130710589F0E6CF82
:104DC00099278130910581F0009729F00297F1F63B
:104DD000E6ECF5E002C0E0EFF5E0849190E0AF0191
:104DE000F901518340830895EEEDF5E0F6CF89E0B7
:104DF00090E046E056E06115710591F389E090E09E
:104E00004FE156E06130710559F3C0CF82E190E087
:104E10004FE256E0E5CF8BE390E044EF55E0E0CF82
:104E200080E189BD82E189BD09B400FEFDCF80919A
:104E3000D8008F7D8093D8008091E00082608093BD
:104E4000E0008091E00081FDFCCF0895AF92BF9219
:104E5000CF92DF92FF920F931F93CF93DF936C015A
:104E6000EB018A010E948528F82E811123C00115CB
:104E7000110539F0F80180819181C81BD90BC80E4A
:104E8000D91EB12CA12C2097A9F08091E80085FDB6
:104E900022C08091E8008E778093E800011511050B
:104EA000A1F0F80180819181A80EB91EB182A08283
:104EB00085E0F82E8F2DDF91CF911F910F91FF90FC
:104EC000DF90CF90BF90AF9008950E9485288823EF
:104ED000D1F2F82EEFCFF60181916F018093F100AE
:104EE0002197FFEFAF1ABF0ACECFFC018091B70325
:104EF0009091B80386179707A0F06115710529F402
:104F00009091E8009E779093E80090E0611571051C
:104F100051F4911108C08091E80082FF34C080E014
:104F20000895BC01F2CF8091B0038823C1F1853090
:104F3000C1F18091E80083FD30C08091E80082FDDE
:104F4000EACF8091E80080FFE1CF8091F3002091CB
:104F5000F200382F6115710519F02830310558F02D
:104F600091E02830310509F090E02091E8002E779B
:104F70002093E800CBCF81918093F10061507109BB
:104F80002F5F3F4FE7CF8091B003882341F08530FA
:104F900041F08091E80083FFBECF81E0089582E078
:104FA000089583E00895FC018091B7039091B803C0
:104FB00086179707A0F06115710529F48091E80024
:104FC0008E778093E80090E06115710551F491119E
:104FD00008C08091E80082FF35C080E00895BC01E0
:104FE000F2CF8091B0038823C9F18530C9F1809157
:104FF000E80083FD31C08091E80082FDEACF809116
:10500000E80080FFE1CF8091F3002091F200382F7B
:105010006115710519F02830310558F091E02830FC
:10502000310509F090E08091E8008E778093E800E8
:10503000CBCF84918093F1003196615071092F5F3D
:105040003F4FE6CF8091B003882341F0853041F097
:105050008091E80083FFBDCF81E0089582E008954C
:1050600083E00895982F973028F08F708093E9009F
:1050700081E008959093E900242F762F50E098174F
:1050800031F07091EC002091ED005091F00021FD85
:1050900002C09F5FE8CF3091EB003E7F3093EB0082
:1050A0003091ED003D7F3093ED003091EB003160A9
:1050B0003093EB007093EC002093ED005093F000E0
:1050C0002091EE0027FDE5CF80E008958091B103A7
:1050D00087FF13C08091E80082FF06C08091E8003E
:1050E0008B778093E80004C08091B0038111F2CFE8
:1050F00008958091B0038823D9F38091E80080FF60
:10510000F8CF8091E8008E77ECCF2091E4003091C9
:10511000E50095E6A9012091EC00822F817020FF27
:1051200006C08091E80080FF06C080E008952091CD
:10513000E80022FD1AC08091B003882389F08530F1
:1051400089F08091EB0085FD0FC02091E400309143
:10515000E50042175307F9F29150E1F684E0089513
:1051600082E0089583E0089581E008950E94252952
:105170000E942D29E0EEF0E0808181608083E8EDDF
:10518000F0E080818F77808319BCA7EDB0E08C912F
:105190008E7F8C9380818F7E80831092AF030895E1
:1051A0000F931F93CF93DF930E9425290E942D29EF
:1051B000C8EDD0E088818F77888388818068888374
:1051C00088818F7D888319BC1092B0031092AC0344
:1051D0001092AE031092AD0300EE10E0F801808152
:1051E0008B7F808388818160888342E060E080E0FB
:1051F0000E943228E1EEF0E080818E7F8083E2EE33
:10520000F0E0808181608083808188608083F80104
:1052100080818E7F8083888180618883DF91CF91B8
:105220001F910F910895E8EDF0E080818F7E8083DB
:10523000E7EDF0E080818160808384E082BF81E0DF
:105240008093AF030E94D0280895E8EDF0E08081BC
:105250008E7F80831092E20008951092DA001092FF
:10526000E10008951F920F920FB60F9211242F9311
:105270003F934F935F936F937F938F939F93AF93DE
:10528000BF93EF93FF938091E10082FF0BC0809169
:10529000E20082FF07C08091E1008B7F8093E100F4
:1052A0000E94912B8091DA0080FF19C08091D80074
:1052B00080FF15C08091DA008E7F8093DA008091A4
:1052C000D90080FF96C080E189BD82E189BD09B423
:1052D00000FEFDCF81E08093B0030E946F25809196
:1052E000E10080FF19C08091E20080FF15C080912D
:1052F000E2008E7F8093E2008091E20080618093E3
:10530000E2008091D80080628093D80019BC85E0CB
:105310008093B0030E9486258091E10084FF2BC01A
:105320008091E20084FF27C080E189BD82E189BDD0
:1053300089B5982F917080FFFBCF8091D8008F7D29
:105340008093D8008091E1008F7E8093E10080916E
:10535000E2008F7E8093E2008091E2008160809382
:10536000E2008091AC03882309F449C084E0809373
:10537000B0030E948F258091E10083FF29C08091B6
:10538000E20083FF25C08091E100877F8093E100E8
:1053900082E08093B0031092AC038091E1008E7F95
:1053A0008093E1008091E2008E7F8093E200809103
:1053B000E20080618093E20042E060E080E00E94D1
:1053C00032288091F00088608093F0000E94802550
:1053D000FF91EF91BF91AF919F918F917F916F91CD
:1053E0005F914F913F912F910F900FBE0F901F90A3
:1053F000189519BC1092B0030E947D2570CF809142
:10540000E30087FD93E09093B003B3CF1F920F9218
:105410000FB60F9211242F933F934F935F936F9387
:105420007F938F939F93AF93BF93CF93DF93EF932C
:10543000FF93D091E900DF708091EC00C82FC1701C
:1054400080FDC0E81092E9008091F000877F809392
:10545000F00078940E944A2A1092E9008091F000AE
:1054600088608093F000CD2BCF70C093E900FF914E
:10547000EF91DF91CF91BF91AF919F918F917F91EC
:105480006F915F914F913F912F910F900FBE0F90B1
:105490001F901895AAE2B0E0E0E5FAE20C94592CCE
:1054A00081EB93E02091F100FC012193CF01F3E027
:1054B000893B9F07B9F70E94AF258091E80083FFE1
:1054C0001EC18091B1039091B2039A3008F017C1C8
:1054D000E92FF0E0E151F24D0C94132C803899F053
:1054E000823809F00CC18091B5038F70873008F0C5
:1054F00006C18093E9008091EB0085FB882780F945
:105500001092E90006C08091AD039091AE03911115
:1055100082609091E800977F9093E8008093F1007B
:105520001092F1008091E8008E77E5C0882309F49D
:10553000D3C0823009F0E3C08091B3038111D6C09B
:105540008091B5038F702FEF280F263008F0D7C059
:105550008093E9002091EB0020FFC8C0933031F424
:105560008091EB0080628093EB00C0C09091EB00D3
:1055700090619093EB0021E030E001C0220F8A950A
:10558000EAF72093EA001092EA008091EB0088602D
:10559000EACF8111B4C01091B3031F778091E3006B
:1055A0008078812B8093E3008091E800877F80934F
:1055B000E8000E9466288091E80080FFFCCF80917F
:1055C000E30080688093E30082E0111183E0809320
:1055D000B00395C08058823008F091C08091B30329
:1055E0009091B4038C3D23E09207A1F583E08A8378
:1055F0008AE289834FB7F894DE01139620E03EE0FB
:1056000051E2E32FF0E050935700E49120FF03C0F4
:10561000E295EF703F5FEF708E2F90E0EA30C0F0C0
:10562000C7968D939D932F5F243159F74FBF80917B
:10563000E800877F8093E8006AE270E0CE0101967F
:105640000E9475278091E8008B778093E80057C00F
:10565000C096E7CF6091B5037091B603AE014F5F7E
:105660005F4F0E94B026BC01892B09F448C090917D
:10567000E800977F9093E80089819A810E94D32760
:10568000E1CF8038E1F58091E800877F8093E800E2
:105690008091AC038093F10045CF811130C090918F
:1056A000B303923060F58091E800877F8093E80033
:1056B0009093AC030E9466288091AC03882311F07C
:1056C00084E005C08091E30087FDFACF81E08093FC
:1056D000B0030E949A2513C08091B303813079F4FE
:1056E00081E0933009F080E08093AE031092E900EE
:1056F0008091E800877F8093E8000E94662880916F
:10570000E80083FF0AC08091E800877F8093E8006B
:105710008091EB0080628093EB00AA96E3E00C940A
:10572000752C0895CF938091B0038823A1F0C09188
:10573000E900CF709091EC00892F817090FD80E896
:10574000C82B1092E9008091E80083FD0E944A2A4C
:10575000CF70C093E900CF910895DB018F939F93A1
:105760000E94372CBF91AF91A29F800D911DA39FE6
:10577000900DB29F900D11240895991B79E004C0FB
:10578000991F961708F0961B881F7A95C9F7809580
:105790000895AA1BBB1B51E107C0AA1FBB1FA61778
:1057A000B70710F0A61BB70B881F991F5A95A9F7CA
:1057B00080959095BC01CD01089597FB072E16F4B6
:1057C000009407D077FD09D00E94C92B07FC05D0B3
:1057D0003EF4909581959F4F0895709561957F4F08
:1057E0000895A1E21A2EAA1BBB1BFD010DC0AA1F22
:1057F000BB1FEE1FFF1FA217B307E407F50720F03A
:10580000A21BB30BE40BF50B661F771F881F991FB4
:105810001A9469F760957095809590959B01AC01FD
:10582000BD01CF010895EE0FFF1F0590F491E02D0B
:1058300009940E94212C332312F48A1B9B0B0C9495
:10584000322CA29FB001B39FC001A39F700D811D98
:105850001124911DB29F700D811D1124911D089579
:105860000E94212CB7FF0895821B930B08950E947C
:10587000212CA59F900DB49F900DA49F800D911D8C
:1058800011240895B7FF0C94372C0E94372C821BEB
:10589000930B08952F923F924F925F926F927F9257
:1058A0008F929F92AF92BF92CF92DF92EF92FF9230
:1058B0000F931F93CF93DF93CDB7DEB7CA1BDB0BDC
:1058C0000FB6F894DEBF0FBECDBF09942A88398881
:1058D00048885F846E847D848C849B84AA84B98488
:1058E000C884DF80EE80FD800C811B81AA81B98194
:1058F000CE0FD11D0FB6F894DEBF0FBECDBFED01A8
:105900000895002E083090F0982F872F762F652F5E
:10591000542F432F322F22270850F4CF220F331F4A
:10592000441F551F661F771F881F991F0A95B2F7DE
:10593000002D089597FD1094002E083098F008501F
:10594000232F342F452F562F672F782F892F912DF6
:10595000F4CF1594979587957795679557954795C3
:10596000379527950A95AAF71124002D08958F924F
:105970009F92AF92BF92CF92DF92EF92FF92CF931E
:10598000DF93EC01688179818A819B8161157105C2
:105990008105910521F464E279ED8BE597E02DE135
:1059A00033EF41E050E00E948E2D49015A019B01E6
:1059B000AC01A7EAB1E40E94372C6B017C01ACEE8C
:1059C000B4EFA50194010E94452CDC01CB018C0DA4
:1059D0009D1DAE1DBF1DB7FF03C00197A109B048B3
:1059E00088839983AA83BB839F77DF91CF91FF90B0
:1059F000EF90DF90CF90BF90AF909F908F900895E1
:105A00000E94B72C089580E091E00E94B72C089581
:105A1000B0E0A0E08093000190930101A093020107
:105A2000B09303010895FC014150504030F00190C3
:105A30000616D1F73197CF01089588279927089541
:105A4000FB01DC0104C08D910190801921F44150CB
:105A50005040C8F7881B990B0895FB01DC0102C078
:105A600001900D9241505040D8F70895F999FECF1A
:105A700092BD81BDF89A992780B50895A6E1B0E05E
:105A800044E050E00C94802DA8E1B0E042E050E00A
:105A90000C94802DDC01A40FB51F4150504048F0FC
:105AA000CB01840F951F2E910E945B2D41505040D9
:105AB000D0F70895262FF999FECF92BD81BDF89AAF
:105AC000019700B4021639F01FBA20BD0FB6F89442
:105AD000FA9AF99A0FBE08950396272F0E945B2D1C
