:100000000C94DC030C9423040C9423040C9423041C
:100010000C9423040C9423040C9423040C942304C4
:100020000C9423040C9423040C94612A0C94332B19
:100030000C9450210C9423040C9423040C9423045A
:100040000C9423040C9423040C9423040C94230494
:100050000C9423040C949D210C9423040C942304ED
:100060000C9423040C9423040C9423040C94230474
:100070000C9423040C9423040C9423040C94230464
:100080000C9423040C9423040C9423040C94230454
:100090000C9423040C9423040C9423040C94230444
:1000A0000C9423040C9423040C9423046D0F700F00
:1000B000780F7D0F820F870F8C0F910F960F9B0F7C
:1000C000A00FA50FA70FAA0FAD0FB00FB30FB60F5C
:1000D000B80FBD0F95169516C716C7161417321709
:1000E000531853183D17D217E317E3174318531843
:1000F00053184C18F318F31805190519FC180519AD
:1001000005190519F318F31801190519051901192D
:10011000A02BC72BBF2CC72BBF2C132C362CBF2CCE
:100120008D2C9C2C29003A003B003C003D003E00F9
:100130003F004000410042004300440045004600AB
:1001400001514C0035001E001F002000210022003C
:10015000230024002500260027002D002E002A0061
:100160002A004A002B00000014001A0008001500A5
:1001700017001C0018000C00120013002F003000A4
:1001800031004B0039000000040016000700090090
:100190000A000B000D000E000F0033003400280091
:1001A00000004E00E100E1001D001B0006001900E8
:1001B0000500110010003600370038000000E5008F
:1001C00052004D00E000E3000000E2002C000000BF
:1001D0002C0000002C000000E6000051E40050005C
:1001E00051004F0001000100010001000100010069
:1001F00001000100010001000100010001000100F7
:100200000100AE0001000100010001000100010039
:1002100001000100010001000100010001000100D6
:100220000100010001000000C25CC35CC55CC65C4B
:10023000C75CC85CC95CCA5C010001000100010028
:1002400001000100010000000100010001000100A7
:100250000100010001000100010001000100010096
:10026000000001000100010001000100BD5CBF5C55
:10027000BE5CC05C01000100010001000000010043
:10028000A9000100010001000000010001000000C0
:100290000100000001000000010001000100AC00AD
:1002A000AA00AB00010001000100010001000100F3
:1002B0000100010001000100010001000100010036
:1002C0000100010001000100010001000100010026
:1002D0000100010001000100010001000100010016
:1002E0000100010001000000010001000100010007
:1002F00001000100010001000100010001000100F6
:1003000001000100010000000100010001000100E6
:1003100001000100010001000100010001000100D5
:1003200000000100010001000100010001000100C6
:1003300001000100010001000100010000000100B6
:1003400001000100010001000000010001000000A7
:100350000100000001000000010001000100010097
:10036000010001000000000000000000000000008B
:10037000000000000000000000000000000000007D
:10038000000000000000000000000000000000006D
:10039000000000000000000000000000000000005D
:1003A000000000000000000000000000000000004D
:1003B000000000000000000000000000000000003D
:1003C000000000000000000000000000000000002D
:1003D000000000000000000000000000000000001D
:1003E000000000000000000000000000000000000D
:1003F00000000000000000000000000000000000FD
:1004000000000000000000000000000000000000EC
:1004100000000000000000000000010000000000DB
:100420000000000032190A00047F3F1F6432146488
:100430003214783C1E1E140A052223252628292A58
:100440002C2D2F3032333536383A3B3D3E40424337
:100450004547494A4C4E5051535557595A5C5E6076
:1004600062646668696B6D6F71737577797B7D7F88
:1004700081838587898A8C8E90929496989A9C9E87
:100480009FA1A3A5A7A8AAACAEAFB1B3B4B6B8B9A3
:10049000BBBCBEBFC1C2C3C5C6C7C9CACBCCCDCE0B
:1004A000D0D1D2D2D3D4D5D6D7D7D8D9D9DADADBEE
:1004B000DBDBDCDCDCDCDCDDDDDDDDDCDCDCDCDC7A
:1004C000DBDBDBDADAD9D9D8D7D7D6D5D4D3D2D2B9
:1004D000D1D0CECDCCCBCAC9C7C6C5C3C2C1BFBEA1
:1004E000BCBBB9B8B6B4B3B1AFAEACAAA8A7A5A30C
:1004F000A19F9E9C9A98969492908E8C8A898785CB
:1005000083817F7D7B79777573716F6D6B696866A9
:100510006462605E5C5A5957555351504E4C4A497B
:1005200047454342403E3D3B3A3836353332302F23
:100530002D2C2A292826252322FFAA7F5540000199
:100540000101010101010101020202020202020293
:100550000203030303030303030404040404040465
:100560000505050505060606060607070707070829
:10057000080808090909090A0A0A0B0B0B0C0C0CDC
:100580000D0D0D0E0E0E0F0F0F1010111111121276
:1005900013131414151516161717181819191A1AF3
:1005A0001B1B1C1D1D1E1E1F202021222223242454
:1005B000252626272829292A2B2C2D2D2E2F303190
:1005C0003232333435363738393A3B3C3D3E3F40A2
:1005D0004142434445464748494A4C4D4E4F50518D
:1005E0005354555658595A5B5D5E5F616264656647
:1005F00068696B6C6D6F7072737577787A7B7D7ECE
:100600008082838587888A8C8E8F91939596989A1D
:100610009C9EA0A2A3A5A7A9ABADAFB1B3B5B7BA35
:10062000BCBEC0C2C4C6C9CBCDCFD1D4D6D8DBDD09
:10063000DFE2E4E7E9EBEEF0F3F5F8FAFDFF04039F
:10064000300000000C034B0042004400370035002E
:100650000000160371006D006B00620075006900F8
:100660006C006400650072000000040309040902C4
:100670003B00020100A0FA0904000001030101008F
:100680000921110100012240000705810308000A29
:1006900009040100010300000009211101000122E9
:1006A000BC000705820320000A12011001000000AF
:1006B00008424B616002000102030105010902A129
:1006C0000185020901A10005091901290515002567
:1006D00001950575018102950175038101050109E7
:1006E0003009311581257F95027508810609381575
:1006F00081257F950175088106050C0A3802158150
:10070000257F950175088106C0C005010980A101FA
:10071000850319012AB700150126B7009501751048
:100720008100C0050C0901A101850419012AA0025C
:10073000150126A002950175108100C0050109066A
:10074000A1018505050719E029E715002501950890
:10075000750181020507190029EF1500250195F0A3
:100760007501810205081901290595057501910298
:10077000950175039101C005010906A1010507193D
:10078000E029E7150025019508750181029501759D
:100790000881010507190029FF150026FF009506AD
:1007A0007508810005081901290595057501910253
:1007B000950175039101C00011241FBECFEFDAE04F
:1007C000DEBFCDBF04B603FE27C080917C039091AD
:1007D0007D03A0917E03B0917F038730904BA740AB
:1007E000B04BD1F410927C0310927D0310927E03E3
:1007F00010927F0314BE84B7877F84BF0FB6F8942E
:10080000A8958091600088618093600010926000DC
:100810000FBEE0E0F8E3099511E0A0E0B1E0E4EC00
:10082000FCE502C005900D92A03DB107D9F723E089
:10083000A0EDB1E001C01D92AC37B207E1F70E9414
:100840009F270C94602E0C94000081E0089581E0B5
:1008500008950C94270408950C942B041F93CF93B0
:10086000DF9300D000D01F92CDB7DEB749835A8303
:100870006B833091460289819A81311114C06623BD
:1008800059F0222349F00E942F1E182F682F8981CA
:100890009A810E94D81D03C00E94031E182F6981EF
:1008A0007A81812F04C00E942F1E69817A810F9066
:1008B0000F900F900F900F90DF91CF911F910C949C
:1008C000FE04FC01262F4081518162817381848165
:1008D0000C942E04CF93DF93EC0160E00E9461043E
:1008E000BE01DF91CF910C942C040E94611F8111F5
:1008F00002C00E9414200E94EE040E9438110C9441
:100900001F070C941B0708950E94E1180E9483049E
:100910002FEF84E39CE0215080409040E1F700C03D
:1009200000000C94C3210F931F93CF93DF93EC012E
:1009300061E00E9461048C01BE010E9429048823A9
:10094000A9F1BE01C8010E94A110882379F1BE015E
:10095000C8010E940B12882349F1BE01C8010E9400
:100960005D12882319F1BE01C8010E9488138823F3
:10097000E9F0BE01C8010E94560F8823B9F08A81B0
:10098000882369F001158CE5180731F00E3D1C45F0
:1009900031F40E9414200AC00E94840407C0CE01D2
:1009A000DF91CF911F910F910C94250480E0DF918E
:1009B000CF911F910F91089508950C94DC0481E06C
:1009C0000895CF93C82F0E94DF04882329F0C1FD2A
:1009D00002C02A9A01C02A98CF910895229A2A9A91
:1009E0000895CF93C82F0E94DD048C2F0E94E1044C
:1009F000CF91089580E090E008950895E72FF0E00A
:100A000096E0899FE00DF11D112484E0EE0FFF1F99
:100A10008A95E1F7E60FF11DEE0FFF1FEC5DFE4F2B
:100A2000859194910895880F991FFC01EC5DFB4F0F
:100A3000859194910895CF93DF930E94FE040E94C4
:100A40003306EC018115904508F041C0C11580E4E2
:100A5000D80708F0D1C0C83ED10510F5C03ED10579
:100A600008F0FDC0C83AD10578F4C53AD10508F0C0
:100A7000A2C0C130D10509F4F2C008F4EEC0C43000
:100A8000D10508F0ECC0E9C0CF3BD10508F49BC00C
:100A9000C03CD10508F4E1C0CE01805C91099EC044
:100AA000C11590E2D90758F4C11521E0D20708F02A
:100AB000D6C0C03FD10508F4D0C0D065D0C0C115A4
:100AC00080E3D80708F08EC0CE019F7087C0C115A3
:100AD00095E5D90708F043C0C11524E5D20708F011
:100AE000A2C0C11582E5D80708F5C11591E5D9075F
:100AF00008F085C0CE0174E0969587957A95E1F768
:100B000083709C2F937021E030E002C0220F331FCE
:100B10009A95E2F73C68382BCF70C695C69580E26F
:100B2000C89FE0011124C22BD32B99C09E012370D2
:100B300033278C2F86958695C115D34508F064C060
:100B4000C1E0D0E002C0CC0FDD1F2A95E2F720E221
:100B5000829FC0011124C82BD92BDC6880C0C1152D
:100B600029E5D207A0F4C11588E5D80708F060C0D0
:100B7000C11596E5D90708F070C08C2F0E94C706F2
:100B80008F71C82FD0E0DC2FCC27D06268C0C11590
:100B90002AE5D20708F451C0CE0190568115904243
:100BA00008F05BC08D2F8F710E94C706DD27D062D1
:100BB0008F71D82B54C0C55AD0E0C65ADE4FC881B9
:100BC000D0E0D0644CC0C85AD0E0CC0FDD1FC45D6B
:100BD000DE4F0990D881C02DD46441C00E94130516
:100BE000EC013DC0CE019927D3FF03C0EC01D86CC6
:100BF00036C0EC01D06C33C0DF70D06A30C0DC2F5F
:100C0000CC27C16FD06A2BC0C1E0D0E002C0CC0FAE
:100C1000DD1F2A95E2F720E2829FC0011124C82B34
:100C2000D92BDA681CC0DC2FCC27C46FD06A17C060
:100C3000DC2FCC27C06FD06A12C08C2F8F700E941F
:100C4000C70694E0D695C7959A95E1F7CF70D0E0A6
:100C5000DC2FCC27D069C82B02C0C0E0D0E0CE0189
:100C6000DF91CF9108958238910569F1B0F4813315
:100C7000910509F46DC048F48932910509F463C007
:100C80008A32910509F469C008958533910509F404
:100C900055C089339105B9F00895833E910569F1F6
:100CA00038F4803E9105B1F0823E910509F1089536
:100CB000863E9105A9F1873E9105B9F1843E9105E3
:100CC00009F064C023C020916D0320FD4FC021FDB9
:100CD0004DC0089580916D0380FD44C080916E03E6
:100CE00080FF44C080916D0384FD42C083EE4DC0FF
:100CF00080916D0382FF38C0F5CF80916D0382FD36
:100D000033C080916E0380FD31C0ECCF80916E03C3
:100D100081FF32C080916D0384FD2AC087EE35C00B
:100D200080916D0383FF26C0F5CF80916D0383FD15
:100D300021C080916E0381FD1FC0ECCF80916D03B7
:100D400085FD1CC01DC080916D0385FD19C016C0B6
:100D500080916D0386FD16C017C080916D0386FDDE
:100D600013C010C089E311C082EE0FC080EE0DC029
:100D700080E00BC086EE09C084EE07C089E205C0A2
:100D800085E303C08AE201C081E390E00895909179
:100D90006D0392FF0DC0282F2871283019F4877F2A
:100DA000846006C0282F2471243011F48B7F886062
:100DB00093FF0DC0282F2871283119F4877E846194
:100DC00006C0282F2471243111F48B7E8861209174
:100DD0006E0320FF0DC0382F3871383019F4877F2B
:100DE000816006C0382F3171313011F48E7F8860F8
:100DF00021FF0DC0282F2871283119F4877E8161C9
:100E000006C0282F2171213111F48E7E886194FD56
:100E1000877E0895E82FF0E0EE0FFF1FE95DFC4F9D
:100E2000808191810895089580EA8A95F1F7089567
:100E300008950C9418070C9419070C9418070C9437
:100E40001D07CF93DF93ADE6B1E043E751E061E0EA
:100E500070E08D91E82FE295EF70F0E021A18F70A6
:100E6000EB0102C0CC0FDD1F8A95E2F7CE019C2F6B
:100E70009095922391A392A1892B82A34A175B0795
:100E800041F7ADE5B1E04DE651E061E070E08D91F4
:100E9000E82FE295EF70F0E021A18F70EB0102C026
:100EA000CC0FDD1F8A95E2F7CE019C2F90959223FF
:100EB00091A392A1892B82A34A175B0741F7EBE12B
:100EC000F3E0A7E2B3E087E293E0119211921D9262
:100ED0001D928E179F07C9F786E00E940008DF91D8
:100EE000CF910C9475046F927F928F929F92AF92E4
:100EF000BF92CF92DF92EF92FF920F931F93CF9307
:100F0000DF938DE6C82E81E0D82E0BE113E097E247
:100F1000A92E93E0B92E712C88248394912CF6018C
:100F200081916F01C82FC295CF70D0E099A18F70C9
:100F3000740101C0EE0C8A95EAF7892F8E2989A3E6
:100F40008AA16E2C609486218AA30E941407EDE585
:100F5000F1E040E050E020E030E06191A62FA29562
:100F6000AF70B0E090968C9190E06F7002C0959554
:100F700087956A95E2F780FD08C0C401042E02C07F
:100F8000880F991F0A94E2F702C080E090E0282BB6
:100F9000392B4F5F5F4F40315105F9F689A1682227
:100FA00069A28AA1E82AEAA2F80180819181281722
:100FB000390721F03183208381E001C080E0782A65
:100FC0000E5F1F4FA016B10609F0A9CF272D46E0EE
:100FD00067E273E08BE193E00E9401080E948104C4
:100FE000872DDF91CF911F910F91FF90EF90DF90B0
:100FF000CF90BF90AF909F908F907F906F9008950B
:101000000895FF920F931F93CF93DF93F82E092F2C
:10101000162FD72FC42F222349F081E08093D201CD
:101020000E9482219093D1018093D0018091D201BE
:101030008823D9F08091D0019091D1010E948E2116
:10104000069798F0EF2DF02FA12FBD2F80E090E0B4
:101050004C2F50E08417950734F4219131912D9352
:101060003D930196F7CF1092D201DF91CF911F915E
:101070000F91FF900895EF92FF920F931F93CF93DC
:10108000DF938B01682F11110AC0442329F0E82F48
:10109000F0E0E25CFA4F6491762F862F75C0212F25
:1010A00030E0E82FF0E0442321F0E25CFA4FE491D5
:1010B000F0E046E0049FC0011124CFEFD0E0BE0174
:1010C0000E940F2D4BEA4603C001479F900D11244B
:1010D000800F911D800F911D982F990F890FAE01E0
:1010E000421B530B4E9FD0014F9FB00D5E9FB00D22
:1010F00011249B2F189FA0011124452F55278E01E5
:10110000041B150B0E9FA0010F9F500D1E9F500D2D
:1011100011247E01E81AF108E29E8001E39E100D81
:10112000F29E100D1124212F3327C21BD30BCE9F0B
:101130009001CF9F300DDE9F300D1124623071057C
:10114000A9F048F46115710569F061307105C9F4C1
:101150008B2F752F0DC06430710581F058F066300B
:10116000710579F47E2F8B2F932F0DC0832F7B2F4A
:101170009E2F09C08E2F7B2F952F05C08E2F732F8A
:1011800002C07E2F852F692FDF91CF911F910F9184
:10119000FF90EF90089541E00E943B080895089564
:1011A000CF93DF93762FE901682F842F0E94CB081D
:1011B000798368838A83DF91CF9108958091330387
:1011C000282F269530E02115310519F481708260B1
:1011D00005C02B32310524F0817084658093330380
:1011E000089588E090E00C94012ECF92DF92EF9268
:1011F000FF926B017C010E94DE08B701A60188E026
:1012000090E0FF90EF90DF90CF900C941F2EE3E3DF
:10121000F3E083E0808311828FEF828383831482E3
:1012200060817181828193810C94F50880913303F0
:1012300080FF02C08695089580E00895909137035D
:10124000933018F49F5F90933703882351F0609197
:1012500033037091340380913503909136030C94DD
:10126000F508089581E00C941E09909137039923A5
:1012700019F0915090933703882351F06091330314
:101280007091340380913503909136030C94F508E6
:10129000089581E00C94350970E00C944811609138
:1012A00008018091330380FF0AC08091070123E089
:1012B000829FC0011124885C9C4F0C944C09809142
:1012C000090190910A01891780F7E82FF0E09F014A
:1012D000220F331FE20FF31FE85CFC4F11821082D4
:1012E00012828F5FF0CF9091330390FF16C09091E0
:1012F000090120910A01921770F4E92FF0E0DF0153
:10130000AA0FBB1FEA0FFB1FE85CFC4F81836083C1
:1013100042839F5FF0CF0C944F090895CF93DF93E2
:1013200000D01F92CDB7DEB79091330390FF0AC073
:101330009E012F5F3F4F0E94D0084B8169818A81B7
:101340000E9473090F900F900F90DF91CF91089535
:10135000CF93DF93EC01EC81F0E0E75CFB4F44912D
:10136000E3E3F3E0628181810E948E098C818F5FCB
:101370008C83DF91CF910895CF93DF93EC01E3E36A
:10138000F3E0438162818C810E948E098C818F5FA2
:101390008C83DF91CF9108950F931F93CF93DF93A9
:1013A00000D01F92CDB7DEB78C018091D30181119F
:1013B0000AC09E012F5F3F4F4FEF6FEF0E94D00892
:1013C0008A818093D301F8018481813051F028F023
:1013D000823061F44091D3010AC08091D30140E092
:1013E00007C06091D30140E080E003C040E080E0AE
:1013F00060E00E947309F801848190E0019663E047
:1014000070E00E94232D84830F900F900F90DF9146
:10141000CF911F910F910895AF92BF92CF92DF921B
:10142000EF92FF920F931F93CF93DF9300D01F9201
:10143000CDB7DEB7182FF62E042FE22E909133038E
:1014400090FF6DC0E92FE695AE2FB0E0AD58BE4FCE
:101450008C9180932D029E7F923061F49E012F5FCC
:101460003F4F812F0E94D0084B8169818A810E9461
:10147000730943C0823019F4009136033EC08630B0
:1014800019F41091340339C08930D9F38931A9F5A1
:10149000E9518E2F8170D82EE695F0E0E75CFA4F87
:1014A000A590B490C12CBB2460910B01C61618F511
:1014B0002C2D30E0A29EC001A39E900DB29E900DF7
:1014C000112470E00E940F2D812FD11002C0860FD1
:1014D00001C0861B90910901290F311DA901440FFC
:1014E000551F240F351F285C3C4F402F6F2D0E9445
:1014F000D008C394D9CF0E944F0910933403F092BF
:10150000350300933603EE2051F060913303709160
:10151000340380913503909136030E94F5080F90B3
:101520000F900F90DF91CF911F910F91FF90EF904F
:10153000DF90CF90BF90AF900895E3E3F3E0918107
:10154000282F4381628188E0890F0C940C0A81E086
:101550000C949D0AE3E3F3E09181282F438162819B
:1015600088EF890F0C940C0A81E00C94AA0AE3E33B
:10157000F3E0628128E0620F08F46FEF282F4381C7
:1015800081810C940C0A81E00C94B70AE3E3F3E048
:10159000628128E0621B08F460E0282F438181818A
:1015A0000C940C0A81E00C94C60AE3E3F3E0438157
:1015B00028E0420F08F44FEF282F628181810C94BC
:1015C0000C0A81E00C94D50AE3E3F3E0438128E0C0
:1015D000421B08F440E0282F628181810C940C0AA0
:1015E00081E00C94E40A20E00C940C0AFF920F9323
:1015F0001F93CF93DF93EC01F12C0FEF10E060917C
:101600000B01F616F0F4809109012F2D30E0280F20
:10161000311DC901880F991F280F391F285C3C4FC5
:1016200070E0C8010E94232D962F8C8140913603D3
:1016300060913503F99E800D11240E94D008F39427
:10164000DECF0E944F099A818C8190FF02C08F5F8C
:1016500001C081508C83DF91CF911F910F91FF903A
:101660000895BF92CF92DF92EF92FF920F931F9354
:10167000CF93DF93FC01828180FF02C00FEF01C096
:1016800001E010E080910B01181708F040C0809134
:101690000901C12ED12CE601C80FD11DCE01880F42
:1016A000991FC80FD91FC85CDC4F198218821A8293
:1016B00034E0E32EF12CB12C8091D5018B0D8131DA
:1016C00014F08F7005C087FF03C090910B01890F44
:1016D000082E000C990BC816D90691F48091360398
:1016E0008E9DA0018F9D500D1124559547955595C0
:1016F00047959E0160913503809134030E94D00884
:10170000B00EF1E0EF1AF108B9F61F5FBBCF0E94EF
:101710004F098091D501013031F4811102C08091CF
:101720000B01815007C090E0019660910B0170E0C1
:101730000E94232D8093D501DF91CF911F910F91AE
:10174000FF90EF90DF90CF90BF900895CF9380915E
:10175000090190910A01891770F4E82FF0E09F01C8
:10176000220F331FE20FF31FE85CFC4F118210823F
:1017700012828F5FF0CFC0E060910B01C617C0F5F9
:10178000EC2FF0E070E0CF010E94232D20910901A1
:10179000820F2091D401022E000C330B90E0E2174F
:1017A000F307CCF020910601022E000C330B2E170C
:1017B0003F078CF09C01220F331F820F931F9C0167
:1017C000285C3C4F4091360360913503809134038F
:1017D0000E94D0080BC0FC01EE0FFF1F8E0F9F1F51
:1017E000FC01E85CFC4F118210821282CF5FC4CFF3
:1017F0000E944F09209105018091D401820F8093AE
:10180000D40190910601920F9093060119165CF491
:10181000082E000C990B40910B0150E041505109EA
:10182000841795071CF0219520930501CF91089509
:101830008F929F92AF92BF92CF92DF92EF92FF92E0
:101840000F931F93CF93DF938C01FC014481C42F2E
:10185000D0E09E01DE010E94672D9B01AC010E9439
:101860007D2D6B017C01E0E2F0E0EC1BFD0BA5E5BA
:10187000B0E09B01AC010E947D2D4B015C019F01FA
:10188000DF010E945F2D9B01AC010E94882D9B010E
:10189000AC012C0D3D1D4E1D5F1DC501B4010E9404
:1018A000372DC22FD22F2A3228F4F3E02F9F900138
:1018B00011240DC025E530E02C1B3109C901880F2A
:1018C000991F280F391F37FF02C02F5F3F4F3595F3
:1018D0002795C22FC095F12C85E5E82EED1A809151
:1018E0000B01F816C8F4F1FC02C08E2D01C08D2F3B
:1018F000909109012F2D30E0290F311DA901440FCE
:10190000551F240F351F285C3C4F4C2F6091350329
:101910000E94D008F394E3CF0E944F09F80184811C
:10192000811102C091E003C0803219F49FEF9093BF
:10193000040190910401890FF8018483DF91CF9114
:101940001F910F91FF90EF90DF90CF90BF90AF90DD
:101950009F908F9008950F931F93CF93DF93EC0187
:1019600000E010E080910B01282F30E002171307F0
:1019700024F5909109019801290F311DA901440F07
:10198000551F240F351F285C3C4F869590E04C81F5
:10199000081719071CF4442331F002C0411103C099
:1019A0004091360301C040E06091350380913403DB
:1019B0000E94D0080F5F1F4FD5CF0E944F098C8126
:1019C00090E00196817099278C83DF91CF911F91D0
:1019D0000F9108958F929F92AF92BF92CF92DF9214
:1019E000EF92FF920F931F93CF93DF93FC01B2808E
:1019F000948081E0848300E015E05BE4A52E8824D8
:101A00008394EE24EA94F12C7BE4C72ED12C8091B0
:101A10000B01081708F08FC0C02FD0E01C9FF00109
:101A20001D9FF00D1124EA52FE4F911003C0138246
:101A3000128267C02381222389F1215023833481BC
:101A4000332319F09A2D921B01C0922F80913603F7
:101A50001C9FF0011D9FF00D1124EA52FE4F899F3B
:101A6000C0011124B6010E940F2D6283211104C010
:101A7000332311F01482A38222E02B1508F441C015
:101A80001C9FF0011D9FF00D1124EA52FE4F809122
:101A90003403808380913503818333C00E94DC2D21
:101AA0008230914074F582E08B1530F40E94DC2D79
:101AB000B7010E94232D02C0809134031C9FF001C6
:101AC0001D9FF00D1124EA52FE4F808322E02B155A
:101AD00058F40E94DC2D209135032695622F70E08A
:101AE0000E94232D820F02C0809135031C9FF001BC
:101AF0001D9FF00D1124EA52FE4F81831282A382B2
:101B00008482809109019E01280F311DC901880F2F
:101B1000991F280F391F285C3C4F1C9FF0011D9F07
:101B2000F00D1124EA52FE4F4281618180810E94B2
:101B3000D0080F5F6CCFDF91CF911F910F91FF9075
:101B4000EF90DF90CF90BF90AF909F908F900C94CC
:101B50004F09E3E3F3E080818E7F808360817181B0
:101B6000828193810E94F50810922E022FEF80E768
:101B700092E0215080409040E1F700C000000C94BA
:101B80004F09E3E3F3E080818E7F808310922E0281
:101B90002FEF80E792E0215080409040E1F700C0B5
:101BA00000000C944F0960913303669570E04BE0A0
:101BB00050E08CE091E00E94EC2D892B19F481E03B
:101BC00080932E020E948221909327028093260206
:101BD00008959091330390FF35C09170811102C038
:101BE000926006C08B3210F0946502C0880F982B6B
:101BF00090933303662351F0609133037091340363
:101C000080913503909136030E94F508609133036B
:101C1000669570E04BE050E08CE091E00E94EC2D86
:101C2000892B19F010922E0202C00E94D30D81E080
:101C300080932902409136036091350380913403EB
:101C40000C94F30A0895682F90913303969581E0E0
:101C5000890F8B3208F081E00C94E90D81E00C943F
:101C6000230E682F9091330396958FEF890F09F417
:101C70008AE20C94E90D81E00C94310E61E00C9441
:101C8000E90DE3E3F3E080818160808386950C9425
:101C90003E0E8091330380FD0C94A90D0C94410EEF
:101CA00060E00C94E90D80912C0281112EC00E94FD
:101CB000611F811104C00E9414200E9407090E9424
:101CC000F10860933303709334038093350390934A
:101CD00036036E7F61F40E9407090E94F108609349
:101CE00033037093340380933503909336030E943B
:101CF000DE0810922E028091330380FF03C0869588
:101D00000E94500E81E080932C020895E3E3F3E0FB
:101D100080818160808386950C94500E10922E02F3
:101D200008950F931F93CF93DF9380912E02882302
:101D300009F49CC080912D02E0913303E695E81BE5
:101D4000E0932802823049F4F0E0EB5CFB4FE49131
:101D5000CE2FD0E008EA19E059C0863049F4F0E00F
:101D6000EE5CFB4FE491CE2FD0E00CEB19E04EC0BF
:101D7000893051F4E695F0E0E15DFB4FE491CE2F20
:101D8000D0E006EF1AE042C08F3051F4E695F0E063
:101D9000E45DFB4FE491CE2FD0E001E31BE036C0C1
:101DA000853149F4F0E0E75DFB4FE491CE2FD0E0C0
:101DB00006EA1BE02BC08831D9F0833239F4E7E220
:101DC000F4E0C591D4910CEC19E020C08432A9F064
:101DD0008532C1F48E2F63E00E94032DE92FF0E0DD
:101DE000EC5DFB4FE491CE2FD0E00AEE1CE00EC07C
:101DF000C8E2D0E008E11CE009C0C4EFD1E00BEA82
:101E00001CE004C0C0EDD7E00FEC18E0809129027F
:101E1000882389F0109229020E9482219E01209538
:101E20003095820F931F9093270280932602109281
:101E30002B0210922A0280912602909127020E9482
:101E40008E218C179D0790F0E0912602F0912702D9
:101E5000CE0FDF1FD0932702C093260286E292E0C6
:101E6000F801DF91CF911F910F910994DF91CF91EC
:101E70001F910F910895882311F0FA0101C0FB0111
:101E80000994CF93DF93C82FD62F0E9416098C1781
:101E900040F00E9416098D1720F4DF91CF910C9429
:101EA0002E0E8C2FDF91CF910C943E0E0F931F932B
:101EB000CF93FB01C281CC2309F463C08C010E9443
:101EC000B01E8272F801E25CFC45E431F10508F0D5
:101ED00059C0EA5AFF4F0C94592D0E94490E06C072
:101EE0004BE35EE06EE27EE00E943B0FC0E04AC042
:101EF0004EE25EE06BE37EE0F7CF44EB5AE067EA48
:101F00007AE0F2CF47EA5AE064EB7AE0EDCF42EDB7
:101F10005AE063EC7AE0E8CF43EC5AE062ED7AE015
:101F2000E3CF40EF5AE061EE7AE0DECF41EE5AE0D7
:101F300060EF7AE0D9CF49E459E062E379E0D4CFA9
:101F400042E359E069E479E0CFCF81E017C065E072
:101F500082E010C068E086E00DC06EE089E00AC053
:101F600064E18FE007C067E185E104C088E106C055
:101F700062E289E10E94410FB9CF83E20E943E0EE6
:101F8000B5CFC1E08C2FCF911F910F9108950E9482
:101F9000611F811102C00E9414200E949C1F809327
:101FA0006803282F26952695269530E026303105A2
:101FB00024F087708862809368038091680380FFB3
:101FC00004C086958695869501C080E00C94D61055
:101FD00020916803822F869586958695482F50E03C
:101FE0004530510554F48F5F982F990F990F990F31
:101FF000822F8770892B80936803809168038160AA
:10200000809368030E94A01F80916803869586953F
:1020100086950C94D61080916803982F9695969586
:102020009695A1F0915E990F990F990F8770892B62
:1020300080936803887F91E009F490E080916803C1
:1020400090FB80F9809368030E94A01F8091680331
:102050008695869586950C94D6108091680380FDB0
:1020600013C0816080936803813019F489E0809304
:102070006803809168030E94A01F80916803869581
:10208000869586950C94D61008958091680380FFFC
:1020900008C08E7F809368030E94A01F80E00C948C
:1020A000D61008958091680380FD0C9445100C941F
:1020B0002D1090916803892F8695869586958F5F60
:1020C0008F719770863038F4880F880F880F892BAE
:1020D0008093680302C09093680380916803887FAF
:1020E00091E009F490E08091680390FB80F980937F
:1020F00068030E94A01F8091680386958695869547
:102100000C94D610863008F085E0909168039770A3
:10211000282F220F220F220F922B90936803987F73
:1021200021E009F420E09091680320FB90F990935E
:1021300068030C94D6100E948210809168030C945E
:10214000A01F9C01FB018281882349F12D3BFCE506
:102150003F07C9F040F42B3BECE53E0769F02C3B10
:102160003C4561F008952F3B9CE5390791F070F0F4
:10217000203C3C4589F0089585E001C080E00E9444
:102180009B1080E008950E940B10FBCF0E94E80F87
:10219000F8CF0E945210F5CF0E945910F2CF81E083
:1021A0000895269A2E9808952E980895CF92DF923A
:1021B000EF92FF92CF93C82F863050F4811109C05F
:1021C000809180008F7D809380000E94D41006C093
:1021D000C5E0809180008062809380002C2F30E0E9
:1021E000AFEFBFEF0E94672D25E030E040E050E008
:1021F0000E94372DC9012C3764E1360728F469E0C5
:1022000070E00E940F2D29C0DA01C9018A50974D54
:10221000AF4FBF4F6627782F892F9A2F25EF38E2CF
:1022200041E050E00E94372D69017A01CA01B901ED
:102230000E94F32C9B01AC01C701B6010E94F32C54
:10224000BB27A92F982F872F009721E0A207B10560
:1022500011F0BC0102C06FEF7FEF70938B006093B1
:102260008A00CF91FF90EF90DF90CF90089508956E
:102270000E94D11082E28093800089E180938100E6
:102280008FEF9FEF90938700809386000C94C70F89
:102290006A9A2EB12B7F3EB134604FB7F894FC019F
:1022A000CB01880F991F680F791F6E0F7F1FE617EC
:1022B000F70789F0819198E03EB9000000C087FFE0
:1022C0002EB9880F000000C000C000C02EB900C0A9
:1022D0009A9591F7ECCF4FBF8FE594E00197F1F716
:1022E00000C000000895AF92BF92CF92DF92EF92AC
:1022F000FF920F931F93CF93DF937C015B01C42F59
:10230000D22FFC0182818823F9F0409331020E9490
:1023100082219093300280932F0280E28C0F8830CC
:1023200008F06EC0C77081E001C0880FCA95EAF757
:10233000DF91CF911F910F91FF90EF90DF90CF90A1
:10234000BF90AF900C94511680913102481335C064
:1023500080912F02909130020E948E216C01B70172
:10236000C5010E949A1BC816D90638F510E21D0F48
:10237000CD17B9F080E28C0F883040F4C77081E04F
:1023800001C0880FCA95EAF70E945816183058F510
:1023900081E09D2F977001C0880F9A95EAF70E94FF
:1023A0005116802F0E943E16183050F5D77081E0EC
:1023B00001C0880FDA95EAF70AC080E28C0F8830F6
:1023C000F8F4C77081E001C0880FCA95EAF7DF9181
:1023D000CF911F910F91FF90EF90DF90CF90BF9022
:1023E000AF900C945816802FDF91CF911F910F91D1
:1023F000FF90EF90DF90CF90BF90AF900C943E167F
:10240000DF91CF911F910F91FF90EF90DF90CF90D0
:10241000BF90AF9008950F939C01CB01233F4CE5F3
:10242000340731F188F4283DFCE53F07D9F0293D18
:102430004CE5340779F1273D3C45A9F506E221EE4C
:1024400041EE67ED7CE52BC0253FFCE53F07E1F061
:10245000A8F0263F3C4539F507E225EE46EE66EF4B
:102460007CE51DC007E225EE45EE68ED7CE517C072
:1024700006E221EE40EE63EF7CE511C007E225EEB7
:1024800044EE64EF7CE50BC006E221EE42EE65EF20
:102490007CE505C008E221E045EE69ED7CE50E949F
:1024A000731180E008C0FC018281882319F010922A
:1024B000310201C081E00F910895CF93DF93EC01C9
:1024C000FB018281882309F41FC1C230FCE5DF07CC
:1024D00008F41BC1C6319CE5D90738F09E012A5F7C
:1024E0003C452930310508F010C10E947E1F9093B1
:1024F0006E0380936D03C031ECE5DE0709F4C3C0C1
:1025000008F041C0C8308CE5D80709F49AC0F0F44F
:10251000C430ECE5DE0709F487C068F4C2308CE50E
:10252000D80709F477C0C330DC4509F0E3C08091D7
:102530006D03826076C0C630ECE5DE0709F46EC03C
:1025400008F07BC080916D0388606BC0CC308CE557
:10255000D80709F485C068F4CA30ECE5DE0709F451
:1025600074C008F079C00E94E11880916D03806802
:1025700058C0CE308CE5D80709F476C008F07FC08B
:1025800080916D038BC0CB3FECE5DE0709F44FC0B3
:1025900018F5C3318CE5D80709F47DC078F4C13152
:1025A000ECE5DE0709F473C0C231DC4509F0A2C0D6
:1025B0000E94E11880916D038F7733C0C5318CE59F
:1025C000D80709F472C008F486C0CA3FDC4509F098
:1025D00091C080916E033EC0CF3FFCE5DF0709F458
:1025E0005FC058F4CD3F9CE5D90709F444C008F416
:1025F0003FC080916E0382602DC0C130FDE5DF07D2
:1026000009F475C008F45DC0C230DD4509F072C040
:1026100080E06EC080916D03816003C080916D0386
:10262000806180936D0366C080916D0311C08091BD
:102630006E03826080936E035DC080916D03806243
:10264000F0CF80916D038064ECCF80916D03886042
:102650008460E7CF8160EECF80916D038E7FE1CF04
:1026600080916D038D7FDDCF80916D03877FD9CF02
:1026700080916E0318C080916E038D7FDBCF8091B7
:102680006D038F7ECECF80916D038F7DCACF8091F9
:102690006D038F7BC6CF80916D03877F8B7FC1CF0A
:1026A00080916E038D7F8E7FC5CF80916D0382FBFD
:1026B000222720F991E0922790FB82F990FB83F981
:1026C000B0CF80916E03982F909591708E7F892B5B
:1026D00090FB81F9AFCF0E94E11880916D0387FBD9
:1026E000222720F991E0922790FB87F99ACF81E089
:1026F0000E94162080916D0390916E030E948F1F9F
:102700000E94E11880E001C081E0DF91CF9108953F
:10271000CF93DF9386319C4541F5EB010E94B01EBB
:10272000982F8A812091170130911801882379F020
:102730009A7A81E009F480E080933202911102C01C
:1027400069E201C065E3C9010E94B1200AC080911D
:102750003202811102C069E201C065E3C9010E9431
:10276000BC200E94FE1E80E001C081E0DF91CF917D
:10277000089590933802809337020895E0913702CC
:10278000F0913802309721F00190F081E02D09940A
:1027900080E00895E0913702F0913802309799F087
:1027A00020912B01222359F020916D0327FF07C0B0
:1027B000DC012C9111962C93119725E02C9302802B
:1027C000F381E02D09940895E0913702F0913802E9
:1027D000309739F022E0DC012C930480F581E02D64
:1027E000099408952091350230913602281739074F
:1027F00071F09093360280933502E0913702F091A8
:102800003802309721F00680F781E02D0994089571
:1028100020913302309134022817390771F09093D8
:10282000340280933302E0913702F09138023097FE
:1028300021F00084F185E02D0994089585B7806822
:1028400085BF85B7806885BF089508950C942514C9
:102850000C9426140C9425140C9425140E941E1418
:102860000E942A140C94281481E008950C943414C6
:102870000E9479210E9421070E9433220E94C70FE3
:102880000E94530E0C942C147F928F929F92AF92C1
:10289000BF92CF92DF92EF92FF920F931F93CF934D
:1028A000DF93CDB7DEB72A970FB6F894DEBF0FBE21
:1028B000CDBF0E9473070E943614811111C08FEFA3
:1028C00089838A831B820E9482218160782F9D8365
:1028D0008C8349815A816B818D810E94F8144FC08D
:1028E0004AE3A42E42E0B42E00E010E0702E802FC8
:1028F0000E940A076C01F501819091905F01882682
:1029000099268114910431F40F5F1F4F0630110591
:1029100069F7D5CF8091E80281FD0E94130780E01E
:10292000EE24E394F12C94012E213F21232B09F175
:102930008E837F82CE20DF2081E0CD2809F480E0E5
:1029400088870E9482218160782F9A8789874E81AB
:102950005F8168858A850E94F814000F111FF801B5
:10296000E65CFD4F80819181E826F926F182E082C4
:1029700006C08F5FEE0CFF1C8031A9F6C5CF0E9408
:10298000910E0E9437110E9404250E94BE1390915F
:1029900039028917C9F00E94BE13809339022A9622
:1029A0000FB6F894DEBF0FBECDBFDF91CF911F9160
:1029B0000F91FF90EF90DF90CF90BF90AF909F90DE
:1029C0008F907F900C94F1042A960FB6F894DEBF96
:1029D0000FBECDBFDF91CF911F910F91FF90EF9070
:1029E000DF90CF90BF90AF909F908F907F90089591
:1029F000CF93DF93CDB7DEB72B970FB6F894DEBF3A
:102A00000FBECDBF4F83588769877A878B87DE01DA
:102A1000119686E0FD0111928A95E9F785E0FE01A5
:102A2000379601900D928A95E1F749815A816B8121
:102A30007C818D819E810E949D1B2B960FB6F89400
:102A4000DEBF0FBECDBFDF91CF910895FC01808125
:102A500091810E94711E0895CF93882309F4A4C028
:102A6000C82F8238C1F40E94BE1381FD9DC069E366
:102A700080911701909118010E94B1200E94FE1EC2
:102A80002FEF81EE94E0215080409040E1F700C0AC
:102A9000000069E319C0833801F50E94BE1380FD70
:102AA00083C063E580911701909118010E94B120C5
:102AB0000E94FE1E2FEF81EE94E021508040904056
:102AC000E1F700C0000063E58091170190911801C3
:102AD0000E94BC20CF910C94FE1E8438C1F40E9449
:102AE000BE1382FD61C067E48091170190911801C7
:102AF0000E94B1200E94FE1E2FEF81EE94E0215033
:102B000080409040E1F700C0000067E4DDCF8CEF2B
:102B10008C0F813AD0F46C2F80911701909118019D
:102B20000E943120882349F06C2F809117019091E9
:102B300018010E94BC200E94FE1E6C2F809117017C
:102B4000909118010E94B120C5CF80E28C0F88308F
:102B500048F4C77081E001C0880FCA95EAF70E9467
:102B6000B31EB8CFEBE5EC0FE33040F4F0E0E453F4
:102B7000FE4F808190E0CF910C94F213E8E5EC0FCA
:102B8000E73150F4F0E0EE0FFF1FE256FE4F808178
:102B90009181CF910C940814C03F30F08C2F0E948B
:102BA000F923CF910C94E624CF910895882309F45A
:102BB00064C0823879F40E94BE1381FF5EC069E36D
:102BC00080911701909118010E94B1200E94FE1E71
:102BD00069E310C08338B1F40E94BE1380FF4DC07A
:102BE00063E580911701909118010E94B1200E9425
:102BF000FE1E63E580911701909118010E94BC2090
:102C00000C94FE1E843879F40E94BE1382FF35C0F6
:102C100067E480911701909118010E94B1200E94F1
:102C2000FE1E67E4E7CF9CEF980F913A10F4682FEF
:102C3000E1CF90E2980F983050F4877091E001C096
:102C4000990F8A95EAF7892F0E94B91ED9CF9BE583
:102C5000980F933020F480E090E00C94F21398E504
:102C6000980F973120F480E090E00C940814803F96
:102C700020F00E9461240C94E6240895CF93C82F7D
:102C80000E942C15C93349F42FEF87EE93E02150B1
:102C900080409040E1F700C000008C2FCF910C9451
:102CA000D615882321F00E94B31E0C94FE1E0895B1
:102CB000882321F00E94B91E0C94FE1E0895CF9225
:102CC000DF92EF92FF920F931F93CF93DF937C01DC
:102CD000062FC72FFC01158112951F70D281D111CB
:102CE0000E94D01E0E94A91E882399F0DD2389F03E
:102CF0008C2F807F803421F080E2800F883048F074
:102D000082E00E94481F0E94A91E91E0D82ED92679
:102D100001C0D12CCC2EC2948FE0C8228C2D90E023
:102D2000FC01E659FF4F0C94592D8C2F807FCF70FA
:102D3000882311F0C295C07FDD2399F0CC2309F4DC
:102D40008DC180E2800F883010F0011104C08C2FFB
:102D50000E94B31E03C08C2F0E94C31E0E94FE1E41
:102D60007DC1802F0E94D615CC2309F49CC180E23E
:102D7000800F883010F0011104C08C2F0E94B91E02
:102D800003C08C2F0E94C91E0E94FE1E8CC18C2F76
:102D9000807FCF70803211F0C295C07F002319F080
:102DA0000130C9F022C0DD2371F0112341F0113050
:102DB00031F40E94E31E8C2B0E94EB1E74C10E9412
:102DC000E31E8C2B1DC0112319F0113009F46BC1C7
:102DD0000E94F41E25C0DD2321F0163008F063C1E7
:102DE0000EC0153008F05FC11BC0DD2361F0112358
:102DF00031F0F701858180FF31C18F7085838C2F81
:102E00000E94511650C1112359F0093309F037C1FE
:102E1000FFEF27EE83E0F15020408040E1F72DC125
:102E20008C2F0E9458163FC18C2F869586958370F3
:102E300019F0813061F037C1DD2321F0802F9C2F04
:102E4000937002C080E090E00E94F21334C1DD2351
:102E500021F0802F9C2F937002C080E090E00E94B0
:102E6000081429C1802FDD2319F00E94F92302C024
:102E70000E9461240E94E6241EC18C2F837009F0F9
:102E800045C0D11114C1402F429546954770440F5B
:102E9000440F602F6F70862F90E0A0E0B0E0042E0A
:102EA00004C0880F991FAA1FBB1F0A94D2F704FF02
:102EB00010C00FE010E020E030E004C0000F111F50
:102EC000221F331F4A95D2F7009510952095309513
:102ED00003C000E010E09801C695C695C370BC0120
:102EE000CD01602B712B822B932BC23049F058F40B
:102EF000C13019F00E94EE1CDAC00E94DC1CD7C061
:102F00000E94001DD4C00E94DA1CD1C0DD2319F03C
:102F10008C2F817001C08695882309F4C8C0402F8A
:102F2000429546954770440F440F602F6F70862F6F
:102F300090E0A0E0B0E0042E04C0880F991FAA1F03
:102F4000BB1F0A94D2F704FF10C00FE010E020E08E
:102F500030E004C0000F111F221F331F4A95D2F723
:102F6000009510952095309503C000E010E0980181
:102F7000C695C695C370BC01CD01602B712B822B09
:102F8000932BC23049F058F4C13019F00E94B31DA0
:102F90008EC00E94A11D8BC00E94C51D88C00E94CA
:102FA000141D85C0CF70DD2339F08C2F0E943A1D8F
:102FB000802F0E9451167BC0802F0E9458168C2FA4
:102FC0000E945B1D74C0023F01F128F4003F41F0F4
:102FD000013FA1F03FC0033FF9F0043F39F13AC08F
:102FE000DD2341F0153008F05EC08C2F8F710E94F8
:102FF000801D59C0163008F056C0F7CFDD2339F0D8
:103000008C2F8F710E943A1D4EC0DD23C9F38C2F87
:103010008F710E945B1D47C0DD2329F08C2F8F71BB
:103020000E94251D40C00E94201D3DC0DD2349F0A7
:10303000CF718C2F0E943A1D63E08C2F0E94331FAA
:1030400032C081E00E94481F123068F182E00E9485
:10305000481F29C0DD2331F0112391F2802F0E94F7
:103060002C1521C0112399F2093349F49FEFE7EEA3
:10307000F3E09150E040F040E1F700C00000802F05
:103080000E94D61510C04C2F4F70602FC7010E94B0
:10309000FA040E944B1C0FC04C2F4F70602FC701C9
:1030A0000E94FD0408C088EF8C0D843020F40E943B
:1030B000BE130E94F104DD20C9F00E94A51E80FD10
:1030C00015C0F70112820E949F1E0E943A1DC7017F
:1030D0000E9497180E949F1EDF91CF911F910F9120
:1030E000FF90EF90DF90CF900C945B1DDF91CF911C
:1030F0001F910F91FF90EF90DF90CF9008950F9365
:103100001F93CF93DF93EC01688179818A810E94BC
:103110007C1E8C010E94D71D0E94C81CB801CE01E4
:103120000E945F16DF91CF911F910F910895CF9369
:10313000DF93EC01988189812B813C81232B31F035
:103140008F3F31F481E09F3F19F403C081E001C05B
:1031500080E080FD19C0CE010E94930481110CC053
:103160000E94A91E882381F08A81882369F082E069
:10317000DF91CF910C94481FCE010E947F18CE01A1
:10318000DF91CF910C946A04DF91CF9108950E9452
:10319000D01E0E94E01E0E94FE1E0E9417260E9462
:1031A000E62480E090E00E94F21380E090E00C942E
:1031B000081480911701909118010E94C7200C9467
:1031C000C7180E94C01E0C94D918E92FE295EF7021
:1031D0004E2F50E0FA013297EE30F105B0F4E65888
:1031E000FF4F0C94592D803F91F018F4883E68F4FD
:1031F0000EC0843F51F40BC0883E48F0813F29F453
:1032000006C093FB882780F9089580E0089581E047
:1032100008950E94711E0E94E5180895CF93DF93D0
:1032200000D000D01F92CDB7DEB70F900F900F9057
:103230000F900F90DF91CF910895CF93DF9300D03F
:1032400000D000D0CDB7DEB726960FB6F894DEBF1B
:103250000FBECDBFDF91CF9108951F93CF93DF9322
:10326000C091470216E080914802C81799F0D0E05B
:103270001C9FF0011D9FF00D1124E75BFD4F408165
:10328000518162817381848195810E941D192196EB
:10329000C770E9CFDF91CF911F91089540917902D6
:1032A00050917A0260917B0270917C0280917D0244
:1032B00090917E020C941D190F931F93CF93DF936F
:1032C00080917E0282958F7009F05DC080917B02B3
:1032D000882309F458C080914702109148026091F8
:1032E000790270917A02C0917C02D0917D0291E0C6
:1032F0006F3F09F090E0292F06E0811709F443C0E1
:10330000209721F07F3F21F030E003C031E001C081
:10331000322F90E030FD34C0089FF001099FF00D7E
:103320001124DF01A75BBD4F11963C911197371314
:1033300027C03C91361324C012963C91129731114C
:103340001FC013964D915C9114974C1B5D0B483C2C
:103350005105B0F480917E028F70806180937E026F
:10336000E25BFD4F80818F708061808389E792E00E
:103370000E949718DF91CF911F910F910C942D19F6
:1033800001968770BACFDF91CF911F910F91089569
:103390009F92AF92BF92CF92DF92EF92FF920F93E4
:1033A0001F93CF93DF93CDB7DEB761970FB6F89435
:1033B000DEBF0FBECDBF8C0185E0F801DE011D969A
:1033C00001900D928A95E1F7F80140815181E280E8
:1033D0009091790260917A0220917C0230917D0275
:1033E0002115310531F06F3F31F481E09F3F19F431
:1033F00003C081E001C080E0F82FF1709F2E80FDB6
:1034000046C1F801A380B48089E7C82E82E0D82E97
:10341000F0907B02F501E21BF30BFF2009F4DFC003
:1034200080917E02E83CF10508F09BC0282F207FA8
:1034300009F052C0561313C0491311C0FE2CE110FD
:103440000EC08F70806180937E020E944E19C6016B
:103450000E94971880917E02F801858358C1AB289D
:1034600031F05F3F31F481E04F3F19F403C081E058
:1034700001C080E080FD03C081E08E2502C080E0B5
:1034800090E0F82FF170FF2E80FF1CC08091470262
:103490002091480236E0821709F417C190E0389F66
:1034A000F001399FF00D1124E75BFD4F6181561348
:1034B00006C06081461303C06281E61203C0019614
:1034C0008770E9CFFE2CEE2009F421C180917E02A5
:1034D000816080937E025AC0561306C0491304C00F
:1034E000E11002C0F8019FC04D875E878D859E85E3
:1034F0000E940919882379F1EE2069F120917E025A
:10350000822F82958F7090E0029774F080917902FB
:1035100090917A0298878F831986BB86AA862C871A
:10352000CE0107960E94971886E0F801A9E7B2E05D
:1035300001900D928A95E1F70E945C190E944E1944
:103540000DC0561729F14D875E878D859E850E9497
:10355000091981112CC0C8010E949718FF24F39407
:10356000D6C0282F207F69F77A2DB98AA88A6E2DB8
:1035700089890E940E1989E792E00E94971886E0D7
:10358000F60111928A95E9F70E944E19F12CBFC0FD
:103590004913D9CFE110D7CFF8018583C8010E9424
:1035A000971886E0F60111928A95E9F7B0C0EE20EF
:1035B00091F220917E02822F82958F7090E0029787
:1035C0000CF4B2CF8091790290917A029A83898328
:1035D0001B82BD82AC822E83CE010196A3CFE83C34
:1035E000F10508F047C0FE2CEE2009F4B4CF5613C5
:1035F00030C049132EC020917E0220FD21C0822FB1
:1036000082958F70482F50E041155105C9F0F8019F
:1036100025834F30510541F08F5F982F9295907F11
:10362000822F8F70892B8583C8010E94971886E0AE
:10363000F801A9E7B2E001900D928A95E1F742C046
:1036400086E0F801A9E7B2E001900D928A95E1F7D2
:103650005EC04D875E878D859E850E940919811108
:1036600063CF80917E02816080937E02C8010E94B8
:1036700097184DC07A2DB98AA88A6E2D89890E9423
:103680000E1986E0F60111928A95E9F71BC0EE202B
:1036900009F461CF4D875E878D859E850E9409194B
:1036A000F82E882309F457CF86E0F801A9E7B2E0A5
:1036B00001900D928A95E1F789E792E00E94261524
:1036C0000E945C190E944E1922C04D875E878D852D
:1036D0009E850E94711E292F22952F70223028F47A
:1036E0009F7039F0811105C00BC0243028F49F7001
:1036F00049F4805E883020F0C8010E9497189F2C02
:10370000F92C05C0F8019581907F99F7F9CF8F2D9D
:1037100061960FB6F894DEBF0FBECDBFDF91CF919B
:103720001F910F91FF90EF90DF90CF90BF90AF90DF
:103730009F90089588EC90E008951F93CF93DF93B6
:10374000CDB7DEB72C970FB6F894DEBF0FBECDBF56
:103750004F83588769877A878B879C87CE01079626
:103760000E94C8198823D1F09F8188852A853B85CE
:10377000232B31F08F3F31F481E09F3F19F403C0D8
:1037800081E001C080E080FD47C04F815885698598
:103790007A858B859C850E941D193EC086E0FE01BE
:1037A0003796DE01119601900D928A95E1F7FF811F
:1037B000E8856A857B856115710531F0EF3F31F44D
:1037C00081E0FF3F19F403C081E001C080E080FD8B
:1037D00023C02091480230E0C901019687709927E3
:1037E0004091470250E084179507F1F1F983EA838D
:1037F0007D836C8396E0929FD001939FB00D11243E
:10380000A75BBD4FFE01319601900D929A95E1F7AD
:10381000809348020E942D1916E0809147029091F2
:103820004802891771F1189FC0011124875B9D4FD1
:103830000E94C819882329F1E09147021E9FF001D8
:103840001124E75BFD4F4081518162817381848146
:1038500095810E941D198091470290E00196877022
:10386000992780934702D9CF0E94E118109248020D
:1038700010924702E9E7F2E086E0DF011D928A95A7
:10388000E9F72C960FB6F894DEBF0FBECDBFDF91DF
:10389000CF911F910895EF92FF920F931F93CF93B3
:1038A000DF938C01892B09F46CC0F12CEE24E39496
:1038B000E8012196F8018491843740F4843008F0BF
:1038C00051C0813081F0823019F15BC0853709F435
:1038D00044C0A8F19CE7980F903708F052C08F774A
:1038E0000E94D61541C00E5F1F4FFE01849190E2E9
:1038F000980F983050F48770FE2D01C0FF0F8A9505
:10390000EAF78F2F0E94D31E14C00E942C152DC0E1
:103910000E5F1F4FFE01849190E2980F983060F483
:103920008770FE2D01C0FF0F8A95EAF78F2F0E9446
:10393000D91E0E94FE1E19C00E94D61516C00E5F29
:103940001F4FFE01C491CC2381F08FE99FE00197C6
:10395000F1F700C00000C150F6CF0E5F1F4FFE010F
:10396000F49003C00E942C158E018F2D882309F43A
:103970009FCFEFE9FFE03197F1F700C000008150E1
:10398000F5CFDF91CF911F910F91FF90EF900895A8
:10399000089508950C94C91C0C94CA1C0E94CC1C58
:1039A0006093BF027093C0028093C1029093C202E1
:1039B0000C94C7180C94CE1C0F931F930091BF0258
:1039C0001091C0022091C1023091C202602B712B74
:1039D000822B932B1F910F910C94CE1C0F931F934E
:1039E0000091BF021091C0022091C1023091C20229
:1039F00060237123822393231F910F910C94CE1C7B
:103A00000F931F930091BF021091C0022091C10239
:103A10003091C20260277127822793271F910F914F
:103A20000C94CE1C0C94C91C0E94121D6093BB0206
:103A30007093BC028093BD029093BE020C94C71891
:103A400060E070E0CB010C94141D0F931F9341E0D4
:103A500050E060E070E08A019B0104C0000F111F7C
:103A6000221F331F8A95D2F7C901B8011F910F9108
:103A70000C94141D0F931F9341E050E060E070E040
:103A800004C0440F551F661F771F8A95D2F7809197
:103A9000BB029091BC02A091BD02B091BE028A010E
:103AA0009B01082B192B2A2B3B2BC901B8011F9115
:103AB0000F910C94141D0F931F9341E050E060E0B0
:103AC00070E004C0440F551F661F771F8A95D2F718
:103AD00040955095609570958091BB029091BC0285
:103AE000A091BD02B091BE028A019B010823192357
:103AF0002A233B23C901B8011F910F910C94141D77
:103B00000F931F9341E050E060E070E004C0440F69
:103B1000551F661F771F8A95D2F78091BB0290913F
:103B2000BC02A091BD02B091BE028A019B01082790
:103B300019272A273B27C901B8011F910F910C941F
:103B4000141D0F931F930091BB021091BC02209192
:103B5000BD023091BE02602B712B822B932B1F91E3
:103B60000F910C94141D0F931F930091BB021091A1
:103B7000BC022091BD023091BE02602371238223DA
:103B800093231F910F910C94141D0F931F93009179
:103B9000BB021091BC022091BD023091BE02602791
:103BA0007127822793271F910F910C94141D08955C
:103BB00020E1929F800D1124E82FE695E695E69589
:103BC000877051E001C0550F8A95EAF785E0E89FBC
:103BD000F0011124E158FD4F20E030E070E0408119
:103BE000CB01022E02C0969587950A94E2F7817068
:103BF000819584278523842781932F5F3F4F25302C
:103C0000310569F7089520E1929F800D1124682FF6
:103C1000669566956695982F977085E0689FB001C8
:103C2000112440E050E080E0FB01E40FF51FE15873
:103C3000FD4F208130E0092E02C0369527950A9469
:103C4000E2F721703327042E01C0220F0A94EAF70D
:103C5000822B4F5F5F4F4530510531F70895BF927A
:103C6000CF92DF92EF92FF920F931F93CF93DF9348
:103C70008C01C090BB02D090BC02E090BD02F090DD
:103C8000BE028091BF029091C002A091C102B0918A
:103C9000C202C82AD92AEA2AFB2ACFE1D0E0D701FA
:103CA000C6010C2E04C0B695A795979587950A94E2
:103CB000D2F780FD04C0219790F7B12C07C0BC2E2D
:103CC000B8018C2F0E941B050197A9F38B2DDF9162
:103CD000CF911F910F91FF90EF90DF90CF90BF9009
:103CE0000895CF93DF93EC010E942F1EBE010E9426
:103CF0001B05DF91CF9108951F93CF93DF93EB01C5
:103D000090914602992321F0CB010E94711E13C0AD
:103D1000882349F0CB010E942F1E182F682FCE0157
:103D20000E94D81D04C0CB010E94031E182FBE01A3
:103D3000812F0E941B05DF91CF911F9108958091E3
:103D4000C30285958595859508958091C3028770F6
:103D500008959091C302977081E009F480E008957E
:103D60008091E70208959091E702892B8093E70202
:103D7000089580959091E70289238093E702089542
:103D80001092E70208959091E602892B8093E60253
:103D9000089580959091E60289238093E602089524
:103DA0001092E60208959091E502892B8093E50236
:103DB000089580959091E50289238093E502089506
:103DC0001092E50208958091C402089508950C941C
:103DD000E61E0C94E71E9091C402981721F0809380
:103DE000C4020C94E91E08958091C402882329F02E
:103DF0001092C40280E00C94E91E0895E09117012E
:103E0000F09118018091E7028083E0911701F09111
:103E1000180190818091E602892B8083E09117013F
:103E2000F091180190818091E502892B8083809127
:103E3000C402882381F0E0911701F091180190816C
:103E4000892B808380911701909118010E941B207B
:103E500081110E94F41E80911701909118010C9419
:103E6000CA130C94E61E98E0899F90011124262B1A
:103E70002093C3020E943A1D8091C30285958595C7
:103E800085950C94311F1092C30280E00C94311F71
:103E90002091C302809582238093C302982F97704C
:103EA00079F430E0482F082E000C550B2417350705
:103EB00039F08595859585950E945B1D0C94431F6F
:103EC000089580E090E00E94072E21E08C3E9E4FF6
:103ED00009F020E0822F089582E090E00C94F92D03
:103EE000682F82E090E00C940D2E83E090E00C941B
:103EF000F92D682F83E090E00C940D2ECF9384E091
:103F000090E00E94F92DC82F81E290E00E94F92DE7
:103F10002C2F30E0A901582BCA01CF910895CF93DF
:103F2000C92F682F84E090E00E940D2E6C2F81E253
:103F300090E0CF910C940D2E86E090E00C94F92D3A
:103F4000682F86E090E00C940D2EAB01BC018FE051
:103F500090E00C941F2EAB01BC0183E190E00C9427
:103F60001F2E60E070E0CB010C94AB1F60E070E0AE
:103F7000CB010E94A51F0C94B11F6CEE7EEF80E078
:103F800090E00E942B2E60E082E090E00E940D2ED7
:103F900060E083E090E00E940D2E1092BF0210922C
:103FA000C0021092C1021092C20260E084E090E070
:103FB0000E940D2E60E081E290E00E940D2E60E0F4
:103FC00085E090E00E940D2E60E086E090E00E9487
:103FD0000D2E6FEF87E090E00E940D2E40E050E044
:103FE000BA0188E090E00E941F2E60E08DE090E032
:103FF0000E940D2E40E050E0BA0188E190E00E945E
:104000001F2E60E087E190E00E940D2E40E050E01E
:10401000BA018CE190E00E941F2E60E080E290E007
:104020000E940D2E0C94B61F0C94BD1F682F8EE0BD
:1040300090E00C940D2EFC01329680912B01882388
:1040400031F080916D0387FF02C09EE101C096E0D0
:1040500080E0915028F021912223D9F38F5FF9CF8E
:104060000895662351F120912B012223E9F020913C
:104070006D0327FF19C0462F4695469546954E314C
:10408000E0F4677021E030E002C0220F331F6A9530
:10409000E2F7FC01E40FF11D828190E0282339232F
:1040A00081E0232B69F409C0FC0132960896219126
:1040B000621729F0E817F907D1F780E0089581E049
:1040C00008959C01FC0132969FEF80E041914617D4
:1040D00089F09F3F19F4411101C0982F8F5F8630FE
:1040E000A9F79F3F39F0F901E90FF11D97FDFA9506
:1040F0006283089508959C012A5F3F4FFC0142812D
:10410000461301C01282019682179307B9F70895EA
:10411000262F2695269526952E3168F4FC01E20F70
:10412000F11D677021E030E001C0220F6A95EAF7C7
:104130008281282B22830895262F26952695269561
:104140002E3170F4FC01E20FF11D677021E030E0C8
:1041500001C0220F6A95EAF72095828128232283E5
:10416000089520912B01222329F020916D0327FD32
:104170000C9488200C94612020912B01222329F09B
:1041800020916D0327FD0C949C200C947B202091A2
:104190002B01FC013296222331F080916D0387FFC1
:1041A00002C08EE101C086E0DF011D928A95E9F729
:1041B000089508950C94D9200C94D920CF930E948F
:1041C000DC200E9473070E94DA20C0E08C2F0E943E
:1041D0000A07892B29F4CF5FC630C1F780E001C000
:1041E00081E0CF9108950C94D9200C94F3200E9483
:1041F000F52080917303843009F43CC01092E902E9
:1042000020E488E190E00FB6F894A89580936000D0
:104210000FBE2093600080E00E94D61080E00E94D4
:10422000F1040E948E0E8091EA0281110AC081E0A1
:104230008093EA028091330381708093EB020E94A5
:10424000C10D0E94F52083B7817F846083BF83B74F
:10425000816083BF7894889583B78E7F83BF0FB6C4
:10426000F894A89580916000886180936000109216
:1042700060000FBE08950C94D9200E94E1180E949E
:10428000C70F0E94BE130E94F1041092EA028091AF
:10429000EB0281110E94860E0E94D30D0C943B21EB
:1042A0001F920F920FB60F9211248F939F93AF938B
:1042B000BF938091E902811113C0809169039091AD
:1042C0006A03A0916B03B0916C034196A11DB11DCF
:1042D0008093690390936A03A0936B03B0936C037C
:1042E000BF91AF919F918F910F900FBE0F901F9034
:1042F000189582E084BD93E095BD9AEF97BD8093B9
:104300006E0008952FB7F8948091690390916A0325
:10431000A0916B03B0916C032FBF08959C014FB720
:10432000F8948091690390916A03A0916B03B09116
:104330006C034FBF821B930B089578941F920F92CA
:104340000FB60F9211248F939F93AF93BF938091D9
:10435000690390916A03A0916B03B0916C0301967D
:10436000A11DB11D8093690390936A03A0936B0311
:10437000B0936C03BF91AF919F918F910F900FBE3F
:104380000F901F90189581E08093E00080E2809369
:10439000D8001092C9008FE19EE40197F1F700C0A8
:1043A000000087E090EBDC0180937C0390937D0319
:1043B000A0937E03B0937F039CE088E10FB6F8944E
:1043C000A895809360000FBE90936000FFCFAF92DE
:1043D000BF92CF92DF92EF92FF920F931F93CF93F2
:1043E000C0E0CC24C394D12CE82EF12C8C2F0E9459
:1043F0000A075C0100E010E0C601002E02C0880F31
:10440000991F0A94E2F78A219B21892B31F40F5FCF
:104410001F4F0031110581F70AC0602F7C2F80E00B
:104420000E94FE04E816F90691F781E004C0CF5F10
:10443000C630E1F680E0CF911F910F91FF90EF9091
:10444000DF90CF90BF90AF900895CF93C82F8CE2AC
:104450000E94E721882321F08C2FCF910C94E72133
:1044600080E0CF910895CF930E94611F811102C017
:104470000E941420C5E6C15049F00E9473078FE3E3
:104480009CE90197F1F700C00000F5CF89E20E9496
:10449000252281112AC18AE20E94252281110E94CF
:1044A000142085E00E94252281110E94C3210E94D0
:1044B0006C1F8093E80287E00E9425228823A9F1DF
:1044C0008BE10E942522882351F08091E80281FB34
:1044D000222720F991E0922790FB81F90EC08EE00F
:1044E0000E942522882361F08091E80282FB222726
:1044F00020F991E0922790FB82F98093E80215C0A1
:1045000080E10E9425229091E802882341F093FBEC
:10451000222720F981E0822780FB93F904C0892FAC
:10452000809580FB90F99093E8028091E8020E94C8
:10453000701F0E947E1F90936E0380936D0380EE28
:104540000E942522882341F080916D03982F909539
:1045500090FB80F980936D0389E30E9425228823D4
:1045600059F080916D0381FB222720F991E0922779
:1045700090FB81F980936D0382EE0E9425228823AF
:1045800059F080916D0382FB222720F991E0922758
:1045900090FB82F980936D0386EE0E94252288238A
:1045A00059F080916D0383FB222720F991E0922737
:1045B00090FB83F980936D0383EE0E94252288236C
:1045C00059F080916D0384FB222720F991E0922716
:1045D00090FB84F980936D0385E30E942522882354
:1045E00059F080916D0385FB222720F991E09227F5
:1045F00090FB85F980936D0381E30E942522882337
:1046000059F080916D0386FB222720F991E09227D3
:1046100090FB86F980936D0381E10E942522882317
:1046200059F080916D0387FB222720F991E09227B2
:1046300090FB87F980936D0380916D0390916E03D9
:104640000E948F1F87E20E942522C82F8EE10E94C0
:1046500025228111C2608FE10E9425228111C46050
:1046600080E20E9425228111C86081E20E942522F9
:104670008111C06182E20E9425228111C06283E221
:104680000E9425228111C06484E20E942522882391
:1046900011F0C06802C0CC2329F08C2F0E94791F32
:1046A0006C2F03C00E94751F682F70E080E090E0BF
:1046B0000E94DA1C6091BB027091BC028091BD0225
:1046C0009091BE020E94121D8FE00E942522882335
:1046D00019F081E00E94162085E10E94252288239E
:1046E00021F080E0CF910C941620CF910895809115
:1046F000F20280FF0BC060911E0185E0689FB0014F
:10470000112475956795759567952BC081FF09C034
:1047100060911E0185E0689FB00111247595679531
:1047200020C082FF07C060911E0185E0689FB00134
:10473000112417C09091F1029923D1F060911D01CD
:10474000961788F720911E0185E0289F900111247B
:10475000929FA001939F500D112470E0CA010E9406
:10476000232D6038710540F46115710519F406C0F8
:1047700065E070E0862F08958FE7089581E0089541
:104780008091F20280FF08C060911A0170E0759577
:1047900067957595679521C081FF06C060911A01E4
:1047A00070E07595679519C082FF04C060911A0189
:1047B00070E010C09091F002992399F06091190176
:1047C0009617A0F780911A01899FC001112470E00B
:1047D0000E94232D6038710540F46115710519F4AC
:1047E00006C061E070E0862F08958FE7089581E0AC
:1047F0000895803F21F40E947723819504C0813F72
:1048000029F40E9477238093F6020895823F21F4D1
:104810000E947723819504C0833F29F40E94772367
:104820008093F5020895893F19F40E94C02305C0C2
:104830008A3F31F40E94C02381958093F702089546
:104840008B3F21F40E94C023819504C08C3F29F442
:104850000E94C0238093F8020895843F21F4809140
:10486000F402816017C0853F21F48091F4028260D8
:1048700011C0863F21F48091F40284600BC0873F11
:1048800021F48091F402886005C0883F31F4809162
:10489000F40280618093F40208958D3F21F48091A9
:1048A000F20281600BC08E3F21F48091F20282609F
:1048B00005C08F3F29F48091F20284608093F20258
:1048C0000895803F39F48091F60287FF6AC0109204
:1048D000F60267C0813F29F48091F6021816BCF3F6
:1048E00060C09091F502823F29F497FF5AC0109260
:1048F000F50257C0833F19F41916CCF352C09091BA
:10490000F702893F31F419160CF04BC01092F702F0
:1049100048C08A3F19F497FF44C0F8CF8B3F39F461
:104920008091F80287FF3DC01092F8023AC08C3F98
:1049300029F48091F8021816BCF333C0843F21F4A7
:104940008091F4028E7F17C0853F21F48091F4029C
:104950008D7F11C0863F21F48091F4028B7F0BC0C4
:10496000873F21F48091F402877F05C0883F31F4AE
:104970008091F4028F7E8093F40213C08D3F21F466
:104980008091F2028E7F0BC08E3F21F48091F20263
:104990008D7F05C08F3F29F48091F2028B7F809339
:1049A000F2028091F502811106C08091F602811118
:1049B00002C01092F1028091F702811106C080912D
:1049C000F802811102C01092F00208950E94822123
:1049D0002091F502211104C02091F602222321F03A
:1049E0009093EF028093EE022091F702211104C010
:1049F0002091F802222321F09093ED028093EC02A3
:104A000083EF92E00C94E413EF92FF920F931F93C5
:104A1000CF93DF9300D000D000D0CDB7DEB786E0D3
:104A2000E3EFF2E0DE01119601900D928A95E1F735
:104A3000E090F502F090F6020091F7021091F80272
:104A40001092F5021092F6021092F7021092F802FC
:104A5000E11003C0FF2009F45DC08091EE02909147
:104A6000EF020E948E21AC019091F102992339F05E
:104A700020911F0130E02417350758F04BC02091DA
:104A800020018AE0289F900111242417350718F08F
:104A900041C09F3F19F09F5F9093F102EE2061F0BB
:104AA0000E9477231E1414F09FEF01C091E0989F9D
:104AB000902D11249093F502FF2061F00E9477233E
:104AC0001F1414F09FEF01C091E0989F902D1124C6
:104AD0009093F6023091F5023323E1F02091F60233
:104AE0002223C1F045EB3403C0011124992319F0AE
:104AF0009093F50203C081E08093F50235EB230328
:104B0000C0011124992319F09093F60203C081E0AB
:104B10008093F602011103C0112309F45DC0809156
:104B2000EC029091ED020E948E21AC019091F00276
:104B3000992339F020911B0130E02417350758F0F4
:104B40004BC020911C018AE0289F9001112424175A
:104B5000350718F041C09F3F19F09F5F9093F00216
:104B6000002361F00E94C023101614F09FEF01C0D3
:104B700091E0989F902D11249093F702112361F0FA
:104B80000E94C023111614F09FEF01C091E0989F7E
:104B9000902D11249093F8023091F7023323E1F025
:104BA0002091F8022223C1F045EB3403C001112407
:104BB000992319F09093F70203C081E08093F702E4
:104BC00035EB2303C0011124992319F09093F802C7
:104BD00003C081E08093F8028091F50281110BC03F
:104BE0008091F602811107C08091F702811103C004
:104BF0008091F80281110E94E624EB82FC820D83F1
:104C00001E8386E0FE013196A3EFB2E001900D9283
:104C10008A95E1F726960FB6F894DEBF0FBECDBF9A
:104C2000DF91CF911F910F91FF90EF900895E3EFE7
:104C3000F2E086E0DF011D928A95E9F71092F10219
:104C40001092F0021092F2020895809119030895D3
:104C5000CF93DF9300D01F92CDB7DEB7909173034F
:104C6000943019F589837B836A8382E08093E9001D
:104C70008FEF9091E800815095FD06C095ED9A95D3
:104C8000F1F700008111F5CF8091E80085FF0DC09C
:104C900040E050E063E070E0CE0101960E945528AC
:104CA0008091E8008E778093E8000F900F900F902E
:104CB000DF91CF910895BC0184E00C942826BC01BB
:104CC00083E00C94282622E02093E9002FEF309116
:104CD000E800215035FD06C035ED3A95F1F70000AA
:104CE0002111F5CF2091E80025FF0BC040E050E0F6
:104CF00066E070E00E9455288091E8008E778093EE
:104D0000E8000895CF93DF9320912B01222339F0FF
:104D100020916D0327FF03C060E222E002C068E03B
:104D200021E02093E9002FEF3091E800215035FD7C
:104D300006C035ED3A95F1F700002111F5CF20912D
:104D4000E80025FF1DC0EC0180912B01811105C0F9
:104D500040E050E068E070E003C070E040E050E008
:104D6000CE010E9455288091E8008E778093E8005C
:104D700080E2FE01A9EFB2E001900D928A95E1F781
:104D8000DF91CF91089580917203811109C00E9433
:104D9000E6290E94432A8091E20084608093E20029
:104DA0000895109272030895089508950C943D217A
:104DB00042E061EC81E00E945F2942E261EC82E026
:104DC0000C945F2980917503833009F460C030F43E
:104DD000813071F0823009F499C008958A3009F465
:104DE00085C08B3009F46BC0893009F0A7C020C0A2
:104DF00080917403813A09F0A1C08091E800877F17
:104E00008093E8008091780390917903892B21F4B5
:104E100060E289EF92E003C060E080E090E070E043
:104E20000E94A0288091E8008B778093E800089585
:104E300080917403813209F081C080917803909150
:104E40007903029708F07AC08091E800877F809309
:104E5000E8008091E80082FD05C080917303811114
:104E6000F8CF6CC02091F3008091F20090E0922B7B
:104E7000029729F48091F1008B7F813021F4809199
:104E8000F100809319038091E8008B7753C08091E3
:104E90007403813A09F052C08091780390917903AC
:104EA000892B09F04BC08091E800877F8093E80050
:104EB0008091E80080FFFCCF80912B0136C080916B
:104EC00074038132D9F58091780390917903892B0D
:104ED000A9F58091E800877F8093E8000E949429DB
:104EE0008091760380932B010C94E11880917403D8
:104EF000813221F58091E800877F8093E8000E944D
:104F000094298091770380931A0308958091740304
:104F1000813AA1F48091E800877F8093E800809136
:104F2000E80080FFFCCF80911A038093F10080910C
:104F3000E8008E778093E8000C949429089584B754
:104F4000877F84BF0FB6F894A89580916000886130
:104F500080936000109260000FBE90E080E80FB672
:104F6000F89480936100909361000FBE0E942E140C
:104F70000E94E6290E94432A8091E2008460809387
:104F8000E20078940E94D82C0E94381481E291E0CB
:104F90000E94B91380917303853069F40E94F72051
:104FA000809171038823B1F30E94DE20882391F35E
:104FB0000E943F28EFCF0E944414ECCF0C94E027CE
:104FC000292F332723303105C9F060F42130310512
:104FD00081F02230310509F04AC08BE390E02EE6E3
:104FE00036E049C02132310511F12232310579F123
:104FF0003EC082E190E029EA36E03DC09927813049
:10500000910561F040F08230910559F0039779F5F0
:10501000EEE3F6E008C0EAE6F6E005C0E2E5F6E019
:1050200002C0E4E4F6E0849190E09F0124C06115A1
:10503000710541F061307105D1F489E090E029E912
:1050400036E019C089E090E020E836E014C0611530
:10505000710541F06130710551F48CEB90E02BEB60
:1050600036E009C080E490E027E737E004C080E044
:1050700090E020E030E0FA0131832083089580E160
:1050800089BD82E189BD09B400FEFDCF8091D800C1
:105090008F7D8093D8008091E00082608093E00053
:1050A0008091E00081FDFCCF0895CF92DF92EF92D6
:1050B000FF920F931F93CF93DF93EC018B017A0143
:1050C0000E94B329811133C0E114F10439F0F701D2
:1050D00080819181081B190BC80FD91FC12CD12CBD
:1050E0000115110519F18091E80085FD16C0809128
:1050F000E8008E778093E800E114F10449F0F701AD
:1051000080819181C80ED91ED182C08285E00FC0F6
:105110000E94B329882321F30AC089918093F1006A
:1051200001501109FFEFCF1ADF0ADACF80E0DF91DB
:10513000CF911F910F91FF90EF90DF90CF90089546
:1051400020917A0330917B032617370748F06115C9
:10515000710539F42091E8002E772093E80001C012
:10516000B901FC0120E06115710579F180917303AB
:105170008823F1F18530F1F18091E80083FD3CC096
:105180008091E80082FD2EC08091E80080FFEBCF87
:105190002091F3008091F20090E0922B611571054F
:1051A00051F08830910538F421912093F10061503D
:1051B00071090196F3CF21E0089709F020E0809172
:1051C000E8008E778093E800CECF2111CFCF0AC0C0
:1051D00080917303882361F0853061F08091E8004D
:1051E00083FD0AC08091E80082FFF2CF80E008953D
:1051F00082E0089583E0089581E0089520917A0384
:1052000030917B032617370748F06115710539F493
:105210002091E8002E772093E80001C0B901FC013D
:1052200020E06115710591F180917303882309F4E1
:1052300040C0853009F43FC08091E80083FD3DC047
:105240008091E80082FD2FC08091E80080FFE9CFC7
:105250002091F3008091F20090E0922B611571058E
:1052600059F08830910540F424912093F100319653
:10527000615071090196F2CF21E0089709F020E012
:105280008091E8008E778093E800CBCF2111CCCFBE
:105290000AC080917303882361F0853061F08091AA
:1052A000E80083FD0AC08091E80082FFF2CF80E031
:1052B000089582E0089583E0089581E00895982F8D
:1052C000973068F59093E900981739F07091EC00E9
:1052D0002091ED005091F00003C0242F762F50E074
:1052E00021FD02C09F5FECCF3091EB003E7F3093F9
:1052F000EB003091ED003D7F3093ED003091EB00FD
:1053000031603093EB007093EC002093ED005093EC
:10531000F0002091EE0027FDE5CF80E008958F702A
:105320008093E90081E008958091740387FF11C0A4
:105330008091E80082FD05C0809173038111F8CF50
:1053400011C08091E8008B770BC080917303882394
:1053500049F08091E80080FFF8CF8091E8008E77D7
:105360008093E80008952091E4003091E50095E6EF
:105370004091EC00842F817040FF23C08091E800B1
:1053800080FD1DC080917303882399F0853099F0CA
:105390008091EB0085FD11C04091E4005091E50043
:1053A0002417350729F3915011F09A01E1CF84E0D9
:1053B000089582E0089583E0089581E0089580E0F3
:1053C00008954091E80042FFDDCF08950E94542ADD
:1053D0000E945C2AE0EEF0E0808181608083E8ED4D
:1053E000F0E080818F77808319BCA7EDB0E08C91CD
:1053F0008E7F8C9380818F7E8083109272030895BC
:105400000F931F93CF93DF930E94542A0E945C2A2C
:10541000C8EDD0E088818F77888388818068888311
:1054200088818F7D888319BC1092730310926F035B
:10543000109271031092700300EE10E0F801808169
:105440008B7F808388818160888342E060E080E098
:105450000E945F29E1EEF0E080818E7F8083E2EEA2
:10546000F0E0808181608083808188608083F801A2
:1054700080818E7F8083888180618883DF91CF9156
:105480001F910F910895E8EDF0E080818F7E808379
:10549000E7EDF0E080818160808384E082BF81E07D
:1054A000809372030C94002AE8EDF0E080818E7FF7
:1054B00080831092E20008951092DA001092E100C9
:1054C00008951F920F920FB60F9211242F933F93BE
:1054D0004F935F936F937F938F939F93AF93BF93FC
:1054E000EF93FF938091E10082FF0BC08091E20077
:1054F00082FF07C08091E1008B7F8093E1000E94D2
:10550000D72C8091DA0080FF1FC08091D80080FFE7
:105510001BC08091DA008E7F8093DA008091D900E1
:1055200080FF0DC080E189BD82E189BD09B400FE24
:10553000FDCF81E0809373030E94C32605C019BC90
:10554000109273030E94D1268091E10080FF19C060
:105550008091E20080FF15C08091E2008E7F8093F1
:10556000E2008091E20080618093E2008091D800A7
:1055700080628093D80019BC85E0809373030E94F9
:10558000D5268091E10084FF30C08091E20084FF45
:105590002CC080E189BD82E189BD09B400FEFDCF48
:1055A0008091D8008F7D8093D8008091E1008F7E1C
:1055B0008093E1008091E2008F7E8093E2008091F1
:1055C000E20081608093E20080916F03882311F0F4
:1055D00084E007C08091E30087FD02C081E001C044
:1055E00083E0809373030E94D6268091E10083FFBD
:1055F00029C08091E20083FF25C08091E100877F70
:105600008093E10082E08093730310926F03809196
:10561000E1008E7F8093E1008091E2008E7F809395
:10562000E2008091E20080618093E20042E060E06D
:1056300080E00E945F298091F00088608093F000F4
:105640000E94D426FF91EF91BF91AF919F918F91CE
:105650007F916F915F914F913F912F910F900FBE6E
:105660000F901F9018951F920F920FB60F92112452
:105670002F933F934F935F936F937F938F939F935A
:10568000AF93BF93CF93DF93EF93FF93C091E90064
:10569000CF708091EC00D82FD17080FDD0E81092AF
:1056A000E9008091F000877F8093F00078940E9459
:1056B000772B1092E9008091F00088608093F000D1
:1056C000CD2BCF70C093E900FF91EF91DF91CF9187
:1056D000BF91AF919F918F917F916F915F914F910A
:1056E0003F912F910F900FBE0F901F9018951F9311
:1056F000CF93DF93CDB7DEB7AA970FB6F894DEBF8E
:105700000FBECDBFE4E7F3E08091F100819323E089
:10571000EC37F207C9F70E94E2268091E80083FF88
:105720002EC18091740390917503492F50E04A3047
:10573000510508F024C1FA01E857FF4F0C94592D88
:10574000803821F0823809F01AC108C080917003B6
:1057500090917103992389F082600FC08091780342
:105760008F70873008F00BC18093E9008091EB00C7
:1057700085FB882780F91092E9009091E800977FD7
:105780009093E8008093F1001092F100D1C0282F8F
:105790002D7F09F0F4C0882319F0823061F0EFC04A
:1057A00080917603813009F0EAC0933009F080E0FF
:1057B000809371032EC08091760381112AC080915D
:1057C00078038F702FEF280F263008F0D8C0809311
:1057D000E9002091EB0020FF1CC0933021F4809160
:1057E000EB00806214C09091EB0090619093EB000D
:1057F00021E030E0A90102C0440F551F8A95E2F76D
:105800004093EA001092EA008091EB008860809358
:10581000EB001092E9008091E800877F8093E80018
:105820000E949429ACC08111AAC0109176031F7701
:105830008091E3008078812B8093E3008091E800E1
:10584000877F8093E8000E9494298091E80080FF80
:10585000FCCF8091E30080688093E300111102C0C7
:1058600082E001C083E08093730389C08058823056
:1058700008F085C080917603909177038C3D53E0CA
:10588000950779F583E08A838AE289834FB7F89494
:10589000DE01139620E03EE051E2E32FF0E050936A
:1058A0005700E49120FF03C0E295EF703F5FEF7077
:1058B0008E2F90E0EA3010F0C79601C0C0968D930D
:1058C0009D932F5F243149F74FBF8091E800877F78
:1058D0008093E8006AE270E0CE0101960E94A02861
:1058E00016C06091780370917903AE014F5F5F4FEE
:1058F0000E94DE27BC01892B09F441C09091E80089
:10590000977F9093E80089819A810E94FE28809178
:10591000E8008B778093E80032C0803881F5809171
:10592000E800877F8093E80080916F038093F10007
:105930008091E8008E7772CF811121C0809176032B
:105940009091770399270297D4F48091E800877F9C
:105950008093E8008091760380936F030E949429DE
:1059600080916F03811106C08091E30087FD02C022
:1059700081E001C084E0809373030E94D826809167
:10598000E80083FF0AC08091E800877F8093E800E9
:105990008091EB0080628093EB00AA960FB6F8949A
:1059A000DEBF0FBECDBFDF91CF911F910895089547
:1059B000CF93809173038823A1F0C091E900CF7049
:1059C0009091EC00892F817090FD80E8C82B109297
:1059D000E9008091E80083FD0E94772BCF70C0938F
:1059E000E900CF910895DB018F939F930E947D2D55
:1059F000BF91AF91A29F800D911DA39F900DB29F6B
:105A0000900D11240895991B79E004C0991F9617F1
:105A100008F0961B881F7A95C9F780950895AA1BF0
:105A2000BB1B51E107C0AA1FBB1FA617B70710F089
:105A3000A61BB70B881F991F5A95A9F780959095BB
:105A4000BC01CD01089597FB072E16F4009407D0F2
:105A500077FD09D00E940F2D07FC05D03EF49095EC
:105A600081959F4F0895709561957F4F0895A1E2AC
:105A70001A2EAA1BBB1BFD010DC0AA1FBB1FEE1FC8
:105A8000FF1FA217B307E407F50720F0A21BB30B13
:105A9000E40BF50B661F771F881F991F1A9469F78F
:105AA00060957095809590959B01AC01BD01CF01EB
:105AB0000895EE0FFF1F0590F491E02D09940E94C8
:105AC000672D332312F48A1B9B0B0C94782DA29F15
:105AD000B001B39FC001A39F700D811D1124911DC2
